{
  "abi": [
    {
      "inputs": [],
      "stateMutability": "nonpayable",
      "type": "constructor"
    },
    {
      "inputs": [],
      "name": "InvalidShortString",
      "type": "error"
    },
    {
      "inputs": [
        {
          "internalType": "string",
          "name": "str",
          "type": "string"
        }
      ],
      "name": "StringTooLong",
      "type": "error"
    },
    {
      "anonymous": false,
      "inputs": [
        {
          "indexed": true,
          "internalType": "address",
          "name": "owner",
          "type": "address"
        },
        {
          "indexed": true,
          "internalType": "address",
          "name": "spender",
          "type": "address"
        },
        {
          "indexed": false,
          "internalType": "uint256",
          "name": "value",
          "type": "uint256"
        }
      ],
      "name": "Approval",
      "type": "event"
    },
    {
      "anonymous": false,
      "inputs": [],
      "name": "EIP712DomainChanged",
      "type": "event"
    },
    {
      "anonymous": false,
      "inputs": [
        {
          "indexed": true,
          "internalType": "bytes32",
          "name": "role",
          "type": "bytes32"
        },
        {
          "indexed": true,
          "internalType": "bytes32",
          "name": "previousAdminRole",
          "type": "bytes32"
        },
        {
          "indexed": true,
          "internalType": "bytes32",
          "name": "newAdminRole",
          "type": "bytes32"
        }
      ],
      "name": "RoleAdminChanged",
      "type": "event"
    },
    {
      "anonymous": false,
      "inputs": [
        {
          "indexed": true,
          "internalType": "bytes32",
          "name": "role",
          "type": "bytes32"
        },
        {
          "indexed": true,
          "internalType": "address",
          "name": "account",
          "type": "address"
        },
        {
          "indexed": true,
          "internalType": "address",
          "name": "sender",
          "type": "address"
        }
      ],
      "name": "RoleGranted",
      "type": "event"
    },
    {
      "anonymous": false,
      "inputs": [
        {
          "indexed": true,
          "internalType": "bytes32",
          "name": "role",
          "type": "bytes32"
        },
        {
          "indexed": true,
          "internalType": "address",
          "name": "account",
          "type": "address"
        },
        {
          "indexed": true,
          "internalType": "address",
          "name": "sender",
          "type": "address"
        }
      ],
      "name": "RoleRevoked",
      "type": "event"
    },
    {
      "anonymous": false,
      "inputs": [
        {
          "indexed": true,
          "internalType": "address",
          "name": "from",
          "type": "address"
        },
        {
          "indexed": true,
          "internalType": "address",
          "name": "to",
          "type": "address"
        },
        {
          "indexed": false,
          "internalType": "uint256",
          "name": "value",
          "type": "uint256"
        }
      ],
      "name": "Transfer",
      "type": "event"
    },
    {
      "inputs": [],
      "name": "DEFAULT_ADMIN_ROLE",
      "outputs": [
        {
          "internalType": "bytes32",
          "name": "",
          "type": "bytes32"
        }
      ],
      "stateMutability": "view",
      "type": "function"
    },
    {
      "inputs": [],
      "name": "DOMAIN_SEPARATOR",
      "outputs": [
        {
          "internalType": "bytes32",
          "name": "",
          "type": "bytes32"
        }
      ],
      "stateMutability": "view",
      "type": "function"
    },
    {
      "inputs": [],
      "name": "MINTER_ROLE",
      "outputs": [
        {
          "internalType": "bytes32",
          "name": "",
          "type": "bytes32"
        }
      ],
      "stateMutability": "view",
      "type": "function"
    },
    {
      "inputs": [
        {
          "internalType": "address",
          "name": "owner",
          "type": "address"
        },
        {
          "internalType": "address",
          "name": "spender",
          "type": "address"
        }
      ],
      "name": "allowance",
      "outputs": [
        {
          "internalType": "uint256",
          "name": "",
          "type": "uint256"
        }
      ],
      "stateMutability": "view",
      "type": "function"
    },
    {
      "inputs": [
        {
          "internalType": "address",
          "name": "spender",
          "type": "address"
        },
        {
          "internalType": "uint256",
          "name": "amount",
          "type": "uint256"
        }
      ],
      "name": "approve",
      "outputs": [
        {
          "internalType": "bool",
          "name": "",
          "type": "bool"
        }
      ],
      "stateMutability": "nonpayable",
      "type": "function"
    },
    {
      "inputs": [
        {
          "internalType": "address",
          "name": "account",
          "type": "address"
        }
      ],
      "name": "balanceOf",
      "outputs": [
        {
          "internalType": "uint256",
          "name": "",
          "type": "uint256"
        }
      ],
      "stateMutability": "view",
      "type": "function"
    },
    {
      "inputs": [],
      "name": "decimals",
      "outputs": [
        {
          "internalType": "uint8",
          "name": "",
          "type": "uint8"
        }
      ],
      "stateMutability": "view",
      "type": "function"
    },
    {
      "inputs": [
        {
          "internalType": "address",
          "name": "spender",
          "type": "address"
        },
        {
          "internalType": "uint256",
          "name": "subtractedValue",
          "type": "uint256"
        }
      ],
      "name": "decreaseAllowance",
      "outputs": [
        {
          "internalType": "bool",
          "name": "",
          "type": "bool"
        }
      ],
      "stateMutability": "nonpayable",
      "type": "function"
    },
    {
      "inputs": [],
      "name": "eip712Domain",
      "outputs": [
        {
          "internalType": "bytes1",
          "name": "fields",
          "type": "bytes1"
        },
        {
          "internalType": "string",
          "name": "name",
          "type": "string"
        },
        {
          "internalType": "string",
          "name": "version",
          "type": "string"
        },
        {
          "internalType": "uint256",
          "name": "chainId",
          "type": "uint256"
        },
        {
          "internalType": "address",
          "name": "verifyingContract",
          "type": "address"
        },
        {
          "internalType": "bytes32",
          "name": "salt",
          "type": "bytes32"
        },
        {
          "internalType": "uint256[]",
          "name": "extensions",
          "type": "uint256[]"
        }
      ],
      "stateMutability": "view",
      "type": "function"
    },
    {
      "inputs": [
        {
          "internalType": "bytes32",
          "name": "role",
          "type": "bytes32"
        }
      ],
      "name": "getRoleAdmin",
      "outputs": [
        {
          "internalType": "bytes32",
          "name": "",
          "type": "bytes32"
        }
      ],
      "stateMutability": "view",
      "type": "function"
    },
    {
      "inputs": [
        {
          "internalType": "bytes32",
          "name": "role",
          "type": "bytes32"
        },
        {
          "internalType": "address",
          "name": "account",
          "type": "address"
        }
      ],
      "name": "grantRole",
      "outputs": [],
      "stateMutability": "nonpayable",
      "type": "function"
    },
    {
      "inputs": [
        {
          "internalType": "bytes32",
          "name": "role",
          "type": "bytes32"
        },
        {
          "internalType": "address",
          "name": "account",
          "type": "address"
        }
      ],
      "name": "hasRole",
      "outputs": [
        {
          "internalType": "bool",
          "name": "",
          "type": "bool"
        }
      ],
      "stateMutability": "view",
      "type": "function"
    },
    {
      "inputs": [
        {
          "internalType": "address",
          "name": "spender",
          "type": "address"
        },
        {
          "internalType": "uint256",
          "name": "addedValue",
          "type": "uint256"
        }
      ],
      "name": "increaseAllowance",
      "outputs": [
        {
          "internalType": "bool",
          "name": "",
          "type": "bool"
        }
      ],
      "stateMutability": "nonpayable",
      "type": "function"
    },
    {
      "inputs": [
        {
          "internalType": "address",
          "name": "to",
          "type": "address"
        },
        {
          "internalType": "uint256",
          "name": "amount",
          "type": "uint256"
        }
      ],
      "name": "mint",
      "outputs": [],
      "stateMutability": "nonpayable",
      "type": "function"
    },
    {
      "inputs": [],
      "name": "name",
      "outputs": [
        {
          "internalType": "string",
          "name": "",
          "type": "string"
        }
      ],
      "stateMutability": "view",
      "type": "function"
    },
    {
      "inputs": [
        {
          "internalType": "address",
          "name": "owner",
          "type": "address"
        }
      ],
      "name": "nonces",
      "outputs": [
        {
          "internalType": "uint256",
          "name": "",
          "type": "uint256"
        }
      ],
      "stateMutability": "view",
      "type": "function"
    },
    {
      "inputs": [
        {
          "internalType": "address",
          "name": "owner",
          "type": "address"
        },
        {
          "internalType": "address",
          "name": "spender",
          "type": "address"
        },
        {
          "internalType": "uint256",
          "name": "value",
          "type": "uint256"
        },
        {
          "internalType": "uint256",
          "name": "deadline",
          "type": "uint256"
        },
        {
          "internalType": "uint8",
          "name": "v",
          "type": "uint8"
        },
        {
          "internalType": "bytes32",
          "name": "r",
          "type": "bytes32"
        },
        {
          "internalType": "bytes32",
          "name": "s",
          "type": "bytes32"
        }
      ],
      "name": "permit",
      "outputs": [],
      "stateMutability": "nonpayable",
      "type": "function"
    },
    {
      "inputs": [
        {
          "internalType": "bytes32",
          "name": "role",
          "type": "bytes32"
        },
        {
          "internalType": "address",
          "name": "account",
          "type": "address"
        }
      ],
      "name": "renounceRole",
      "outputs": [],
      "stateMutability": "nonpayable",
      "type": "function"
    },
    {
      "inputs": [
        {
          "internalType": "bytes32",
          "name": "role",
          "type": "bytes32"
        },
        {
          "internalType": "address",
          "name": "account",
          "type": "address"
        }
      ],
      "name": "revokeRole",
      "outputs": [],
      "stateMutability": "nonpayable",
      "type": "function"
    },
    {
      "inputs": [
        {
          "internalType": "bytes4",
          "name": "interfaceId",
          "type": "bytes4"
        }
      ],
      "name": "supportsInterface",
      "outputs": [
        {
          "internalType": "bool",
          "name": "",
          "type": "bool"
        }
      ],
      "stateMutability": "view",
      "type": "function"
    },
    {
      "inputs": [],
      "name": "symbol",
      "outputs": [
        {
          "internalType": "string",
          "name": "",
          "type": "string"
        }
      ],
      "stateMutability": "view",
      "type": "function"
    },
    {
      "inputs": [],
      "name": "totalSupply",
      "outputs": [
        {
          "internalType": "uint256",
          "name": "",
          "type": "uint256"
        }
      ],
      "stateMutability": "view",
      "type": "function"
    },
    {
      "inputs": [
        {
          "internalType": "address",
          "name": "to",
          "type": "address"
        },
        {
          "internalType": "uint256",
          "name": "amount",
          "type": "uint256"
        }
      ],
      "name": "transfer",
      "outputs": [
        {
          "internalType": "bool",
          "name": "",
          "type": "bool"
        }
      ],
      "stateMutability": "nonpayable",
      "type": "function"
    },
    {
      "inputs": [
        {
          "internalType": "address",
          "name": "from",
          "type": "address"
        },
        {
          "internalType": "address",
          "name": "to",
          "type": "address"
        },
        {
          "internalType": "uint256",
          "name": "amount",
          "type": "uint256"
        }
      ],
      "name": "transferFrom",
      "outputs": [
        {
          "internalType": "bool",
          "name": "",
          "type": "bool"
        }
      ],
      "stateMutability": "nonpayable",
      "type": "function"
    }
  ],
  "bytecode": {
    "object": "0x6101606040523480156200001257600080fd5b50604051806040016040528060048152602001634175786f60e01b81525080604051806040016040528060018152602001603160f81b815250604051806040016040528060048152602001634175786f60e01b815250604051806040016040528060048152602001634155584f60e01b8152508160039081620000969190620003a1565b506004620000a58282620003a1565b505050620000c3600683620001b860201b6200088f1790919060201c565b60e052620000df816007620001b8602090811b6200088f17901c565b61010052815160208084019190912061012052815190820120610140524660a0526200016f6101205161014051604080517f8b73c3c69bb8fe3d512ecc4cf759cc79239f7b179b0ffacaa9a75d522b39400f60208201529081019290925260608201524660808201523060a082015260009060c00160405160208183030381529060405280519060200120905090565b60805250503060c052506200018660003362000208565b620001b27f9f2df0fed2c77648de5860a4cc508cd0818c85b8b8a1ab4ceeef8d981c8956a63362000208565b620004e2565b6000602083511015620001d857620001d083620002ad565b905062000202565b82620001ef83620002f960201b620008c01760201c565b90620001fc9082620003a1565b5060ff90505b92915050565b60008281526005602090815260408083206001600160a01b038516845290915290205460ff16620002a95760008281526005602090815260408083206001600160a01b03851684529091529020805460ff19166001179055620002683390565b6001600160a01b0316816001600160a01b0316837f2f8788117e7eff1d82e926ec794901d17c78024a50270940304540a733656f0d60405160405180910390a45b5050565b600080829050601f81511115620002e4578260405163305a27a960e01b8152600401620002db91906200046d565b60405180910390fd5b8051620002f182620004bd565b179392505050565b90565b634e487b7160e01b600052604160045260246000fd5b600181811c908216806200032757607f821691505b6020821081036200034857634e487b7160e01b600052602260045260246000fd5b50919050565b601f8211156200039c57600081815260208120601f850160051c81016020861015620003775750805b601f850160051c820191505b81811015620003985782815560010162000383565b5050505b505050565b81516001600160401b03811115620003bd57620003bd620002fc565b620003d581620003ce845462000312565b846200034e565b602080601f8311600181146200040d5760008415620003f45750858301515b600019600386901b1c1916600185901b17855562000398565b600085815260208120601f198616915b828110156200043e578886015182559484019460019091019084016200041d565b50858210156200045d5787850151600019600388901b60f8161c191681555b5050505050600190811b01905550565b600060208083528351808285015260005b818110156200049c578581018301518582016040015282016200047e565b506000604082860101526040601f19601f8301168501019250505092915050565b80516020808301519190811015620003485760001960209190910360031b1b16919050565b60805160a05160c05160e051610100516101205161014051611a1f6200053d6000396000610d7201526000610d4a015260006105c80152600061059d01526000610ca501526000610ccf01526000610cf90152611a1f6000f3fe608060405234801561001057600080fd5b50600436106101585760003560e01c806370a08231116100c3578063a457c2d71161007c578063a457c2d7146102d4578063a9059cbb146102e7578063d505accf146102fa578063d53913931461030d578063d547741f14610334578063dd62ed3e1461034757600080fd5b806370a082311461025a5780637ecebe001461028357806384b0196e1461029657806391d14854146102b157806395d89b41146102c4578063a217fddf146102cc57600080fd5b80632f2ff15d116101155780632f2ff15d146101f5578063313ce5671461020a5780633644e5151461021957806336568abe14610221578063395093511461023457806340c10f191461024757600080fd5b806301ffc9a71461015d57806306fdde0314610185578063095ea7b31461019a57806318160ddd146101ad57806323b872dd146101bf578063248a9ca3146101d2575b600080fd5b61017061016b3660046114cb565b61035a565b60405190151581526020015b60405180910390f35b61018d610391565b60405161017c9190611545565b6101706101a8366004611574565b610423565b6002545b60405190815260200161017c565b6101706101cd36600461159e565b61043b565b6101b16101e03660046115da565b60009081526005602052604090206001015490565b6102086102033660046115f3565b61045f565b005b6040516012815260200161017c565b6101b1610489565b61020861022f3660046115f3565b610498565b610170610242366004611574565b61051b565b610208610255366004611574565b61053d565b6101b161026836600461161f565b6001600160a01b031660009081526020819052604090205490565b6101b161029136600461161f565b610571565b61029e61058f565b60405161017c979695949392919061163a565b6101706102bf3660046115f3565b610618565b61018d610643565b6101b1600081565b6101706102e2366004611574565b610652565b6101706102f5366004611574565b6106cd565b6102086103083660046116d0565b6106db565b6101b17f9f2df0fed2c77648de5860a4cc508cd0818c85b8b8a1ab4ceeef8d981c8956a681565b6102086103423660046115f3565b61083f565b6101b1610355366004611743565b610864565b60006001600160e01b03198216637965db0b60e01b148061038b57506301ffc9a760e01b6001600160e01b03198316145b92915050565b6060600380546103a09061176d565b80601f01602080910402602001604051908101604052809291908181526020018280546103cc9061176d565b80156104195780601f106103ee57610100808354040283529160200191610419565b820191906000526020600020905b8154815290600101906020018083116103fc57829003601f168201915b5050505050905090565b6000336104318185856108c3565b5060019392505050565b6000336104498582856109e7565b610454858585610a61565b506001949350505050565b60008281526005602052604090206001015461047a81610c05565b6104848383610c12565b505050565b6000610493610c98565b905090565b6001600160a01b038116331461050d5760405162461bcd60e51b815260206004820152602f60248201527f416363657373436f6e74726f6c3a2063616e206f6e6c792072656e6f756e636560448201526e103937b632b9903337b91039b2b63360891b60648201526084015b60405180910390fd5b6105178282610dc3565b5050565b60003361043181858561052e8383610864565b61053891906117b7565b6108c3565b7f9f2df0fed2c77648de5860a4cc508cd0818c85b8b8a1ab4ceeef8d981c8956a661056781610c05565b6104848383610e2a565b6001600160a01b03811660009081526008602052604081205461038b565b6000606080828080836105c37f00000000000000000000000000000000000000000000000000000000000000006006610ee9565b6105ee7f00000000000000000000000000000000000000000000000000000000000000006007610ee9565b60408051600080825260208201909252600f60f81b9b939a50919850469750309650945092509050565b60009182526005602090815260408084206001600160a01b0393909316845291905290205460ff1690565b6060600480546103a09061176d565b600033816106608286610864565b9050838110156106c05760405162461bcd60e51b815260206004820152602560248201527f45524332303a2064656372656173656420616c6c6f77616e63652062656c6f77604482015264207a65726f60d81b6064820152608401610504565b61045482868684036108c3565b600033610431818585610a61565b8342111561072b5760405162461bcd60e51b815260206004820152601d60248201527f45524332305065726d69743a206578706972656420646561646c696e650000006044820152606401610504565b60007f6e71edae12b1b97f4d1f60370fef10105fa2faae0126114a169c64845d6126c988888861075a8c610f8d565b6040805160208101969096526001600160a01b0394851690860152929091166060840152608083015260a082015260c0810186905260e00160405160208183030381529060405280519060200120905060006107b582610fb5565b905060006107c582878787610fe2565b9050896001600160a01b0316816001600160a01b0316146108285760405162461bcd60e51b815260206004820152601e60248201527f45524332305065726d69743a20696e76616c6964207369676e617475726500006044820152606401610504565b6108338a8a8a6108c3565b50505050505050505050565b60008281526005602052604090206001015461085a81610c05565b6104848383610dc3565b6001600160a01b03918216600090815260016020908152604080832093909416825291909152205490565b60006020835110156108ab576108a48361100a565b905061038b565b816108b6848261182e565b5060ff905061038b565b90565b6001600160a01b0383166109255760405162461bcd60e51b8152602060048201526024808201527f45524332303a20617070726f76652066726f6d20746865207a65726f206164646044820152637265737360e01b6064820152608401610504565b6001600160a01b0382166109865760405162461bcd60e51b815260206004820152602260248201527f45524332303a20617070726f766520746f20746865207a65726f206164647265604482015261737360f01b6064820152608401610504565b6001600160a01b0383811660008181526001602090815260408083209487168084529482529182902085905590518481527f8c5be1e5ebec7d5bd14f71427d1e84f3dd0314c0f7b2291e5b200ac8c7c3b925910160405180910390a3505050565b60006109f38484610864565b90506000198114610a5b5781811015610a4e5760405162461bcd60e51b815260206004820152601d60248201527f45524332303a20696e73756666696369656e7420616c6c6f77616e63650000006044820152606401610504565b610a5b84848484036108c3565b50505050565b6001600160a01b038316610ac55760405162461bcd60e51b815260206004820152602560248201527f45524332303a207472616e736665722066726f6d20746865207a65726f206164604482015264647265737360d81b6064820152608401610504565b6001600160a01b038216610b275760405162461bcd60e51b815260206004820152602360248201527f45524332303a207472616e7366657220746f20746865207a65726f206164647260448201526265737360e81b6064820152608401610504565b6001600160a01b03831660009081526020819052604090205481811015610b9f5760405162461bcd60e51b815260206004820152602660248201527f45524332303a207472616e7366657220616d6f756e7420657863656564732062604482015265616c616e636560d01b6064820152608401610504565b6001600160a01b03848116600081815260208181526040808320878703905593871680835291849020805487019055925185815290927fddf252ad1be2c89b69c2b068fc378daa952ba7f163c4a11628f55a4df523b3ef910160405180910390a3610a5b565b610c0f8133611048565b50565b610c1c8282610618565b6105175760008281526005602090815260408083206001600160a01b03851684529091529020805460ff19166001179055610c543390565b6001600160a01b0316816001600160a01b0316837f2f8788117e7eff1d82e926ec794901d17c78024a50270940304540a733656f0d60405160405180910390a45050565b6000306001600160a01b037f000000000000000000000000000000000000000000000000000000000000000016148015610cf157507f000000000000000000000000000000000000000000000000000000000000000046145b15610d1b57507f000000000000000000000000000000000000000000000000000000000000000090565b610493604080517f8b73c3c69bb8fe3d512ecc4cf759cc79239f7b179b0ffacaa9a75d522b39400f60208201527f0000000000000000000000000000000000000000000000000000000000000000918101919091527f000000000000000000000000000000000000000000000000000000000000000060608201524660808201523060a082015260009060c00160405160208183030381529060405280519060200120905090565b610dcd8282610618565b156105175760008281526005602090815260408083206001600160a01b0385168085529252808320805460ff1916905551339285917ff6391f5c32d9c69d2a47ea670b442974b53935d1edc7fd64eb21e047a839171b9190a45050565b6001600160a01b038216610e805760405162461bcd60e51b815260206004820152601f60248201527f45524332303a206d696e7420746f20746865207a65726f2061646472657373006044820152606401610504565b8060026000828254610e9291906117b7565b90915550506001600160a01b038216600081815260208181526040808320805486019055518481527fddf252ad1be2c89b69c2b068fc378daa952ba7f163c4a11628f55a4df523b3ef910160405180910390a35050565b606060ff8314610efc576108a4836110a1565b818054610f089061176d565b80601f0160208091040260200160405190810160405280929190818152602001828054610f349061176d565b8015610f815780601f10610f5657610100808354040283529160200191610f81565b820191906000526020600020905b815481529060010190602001808311610f6457829003601f168201915b5050505050905061038b565b6001600160a01b03811660009081526008602052604090208054600181018255905b50919050565b600061038b610fc2610c98565b8360405161190160f01b8152600281019290925260228201526042902090565b6000806000610ff3878787876110e0565b91509150611000816111a4565b5095945050505050565b600080829050601f81511115611035578260405163305a27a960e01b81526004016105049190611545565b8051611040826118ee565b179392505050565b6110528282610618565b6105175761105f816112ee565b61106a836020611300565b60405160200161107b929190611912565b60408051601f198184030181529082905262461bcd60e51b825261050491600401611545565b606060006110ae836114a3565b604080516020808252818301909252919250600091906020820181803683375050509182525060208101929092525090565b6000807f7fffffffffffffffffffffffffffffff5d576e7357a4501ddfe92f46681b20a0831115611117575060009050600361119b565b6040805160008082526020820180845289905260ff881692820192909252606081018690526080810185905260019060a0016020604051602081039080840390855afa15801561116b573d6000803e3d6000fd5b5050604051601f1901519150506001600160a01b0381166111945760006001925092505061119b565b9150600090505b94509492505050565b60008160048111156111b8576111b8611987565b036111c05750565b60018160048111156111d4576111d4611987565b036112215760405162461bcd60e51b815260206004820152601860248201527f45434453413a20696e76616c6964207369676e617475726500000000000000006044820152606401610504565b600281600481111561123557611235611987565b036112825760405162461bcd60e51b815260206004820152601f60248201527f45434453413a20696e76616c6964207369676e6174757265206c656e677468006044820152606401610504565b600381600481111561129657611296611987565b03610c0f5760405162461bcd60e51b815260206004820152602260248201527f45434453413a20696e76616c6964207369676e6174757265202773272076616c604482015261756560f01b6064820152608401610504565b606061038b6001600160a01b03831660145b6060600061130f83600261199d565b61131a9060026117b7565b67ffffffffffffffff811115611332576113326117ca565b6040519080825280601f01601f19166020018201604052801561135c576020820181803683370190505b509050600360fc1b81600081518110611377576113776119bc565b60200101906001600160f81b031916908160001a905350600f60fb1b816001815181106113a6576113a66119bc565b60200101906001600160f81b031916908160001a90535060006113ca84600261199d565b6113d59060016117b7565b90505b600181111561144d576f181899199a1a9b1b9c1cb0b131b232b360811b85600f1660108110611409576114096119bc565b1a60f81b82828151811061141f5761141f6119bc565b60200101906001600160f81b031916908160001a90535060049490941c93611446816119d2565b90506113d8565b50831561149c5760405162461bcd60e51b815260206004820181905260248201527f537472696e67733a20686578206c656e67746820696e73756666696369656e746044820152606401610504565b9392505050565b600060ff8216601f81111561038b57604051632cd44ac360e21b815260040160405180910390fd5b6000602082840312156114dd57600080fd5b81356001600160e01b03198116811461149c57600080fd5b60005b838110156115105781810151838201526020016114f8565b50506000910152565b600081518084526115318160208601602086016114f5565b601f01601f19169290920160200192915050565b60208152600061149c6020830184611519565b80356001600160a01b038116811461156f57600080fd5b919050565b6000806040838503121561158757600080fd5b61159083611558565b946020939093013593505050565b6000806000606084860312156115b357600080fd5b6115bc84611558565b92506115ca60208501611558565b9150604084013590509250925092565b6000602082840312156115ec57600080fd5b5035919050565b6000806040838503121561160657600080fd5b8235915061161660208401611558565b90509250929050565b60006020828403121561163157600080fd5b61149c82611558565b60ff60f81b881681526000602060e08184015261165a60e084018a611519565b838103604085015261166c818a611519565b606085018990526001600160a01b038816608086015260a0850187905284810360c0860152855180825283870192509083019060005b818110156116be578351835292840192918401916001016116a2565b50909c9b505050505050505050505050565b600080600080600080600060e0888a0312156116eb57600080fd5b6116f488611558565b965061170260208901611558565b95506040880135945060608801359350608088013560ff8116811461172657600080fd5b9699959850939692959460a0840135945060c09093013592915050565b6000806040838503121561175657600080fd5b61175f83611558565b915061161660208401611558565b600181811c9082168061178157607f821691505b602082108103610faf57634e487b7160e01b600052602260045260246000fd5b634e487b7160e01b600052601160045260246000fd5b8082018082111561038b5761038b6117a1565b634e487b7160e01b600052604160045260246000fd5b601f82111561048457600081815260208120601f850160051c810160208610156118075750805b601f850160051c820191505b8181101561182657828155600101611813565b505050505050565b815167ffffffffffffffff811115611848576118486117ca565b61185c81611856845461176d565b846117e0565b602080601f83116001811461189157600084156118795750858301515b600019600386901b1c1916600185901b178555611826565b600085815260208120601f198616915b828110156118c0578886015182559484019460019091019084016118a1565b50858210156118de5787850151600019600388901b60f8161c191681555b5050505050600190811b01905550565b80516020808301519190811015610faf5760001960209190910360031b1b16919050565b7f416363657373436f6e74726f6c3a206163636f756e742000000000000000000081526000835161194a8160178501602088016114f5565b7001034b99036b4b9b9b4b733903937b6329607d1b601791840191820152835161197b8160288401602088016114f5565b01602801949350505050565b634e487b7160e01b600052602160045260246000fd5b60008160001904831182151516156119b7576119b76117a1565b500290565b634e487b7160e01b600052603260045260246000fd5b6000816119e1576119e16117a1565b50600019019056fea2646970667358221220bd4a637386d171cb16f19011bb0a325394408ac1bd4cabf45a3e7c3b9e53afbe64736f6c63430008100033",
    "linkReferences": {}
  },
  "methodIdentifiers": {
    "DEFAULT_ADMIN_ROLE()": "a217fddf",
    "DOMAIN_SEPARATOR()": "3644e515",
    "MINTER_ROLE()": "d5391393",
    "allowance(address,address)": "dd62ed3e",
    "approve(address,uint256)": "095ea7b3",
    "balanceOf(address)": "70a08231",
    "decimals()": "313ce567",
    "decreaseAllowance(address,uint256)": "a457c2d7",
    "eip712Domain()": "84b0196e",
    "getRoleAdmin(bytes32)": "248a9ca3",
    "grantRole(bytes32,address)": "2f2ff15d",
    "hasRole(bytes32,address)": "91d14854",
    "increaseAllowance(address,uint256)": "39509351",
    "mint(address,uint256)": "40c10f19",
    "name()": "06fdde03",
    "nonces(address)": "7ecebe00",
    "permit(address,address,uint256,uint256,uint8,bytes32,bytes32)": "d505accf",
    "renounceRole(bytes32,address)": "36568abe",
    "revokeRole(bytes32,address)": "d547741f",
    "supportsInterface(bytes4)": "01ffc9a7",
    "symbol()": "95d89b41",
    "totalSupply()": "18160ddd",
    "transfer(address,uint256)": "a9059cbb",
    "transferFrom(address,address,uint256)": "23b872dd"
  },
  "id": 114
}