{
  "abi": [
    {
      "inputs": [
        {
          "internalType": "address",
          "name": "_tokenLocker",
          "type": "address"
        }
      ],
      "stateMutability": "nonpayable",
      "type": "constructor"
    },
    {
      "inputs": [],
      "name": "InvalidShortString",
      "type": "error"
    },
    {
      "inputs": [
        {
          "internalType": "string",
          "name": "str",
          "type": "string"
        }
      ],
      "name": "StringTooLong",
      "type": "error"
    },
    {
      "anonymous": false,
      "inputs": [
        {
          "indexed": true,
          "internalType": "address",
          "name": "owner",
          "type": "address"
        },
        {
          "indexed": true,
          "internalType": "address",
          "name": "spender",
          "type": "address"
        },
        {
          "indexed": false,
          "internalType": "uint256",
          "name": "value",
          "type": "uint256"
        }
      ],
      "name": "Approval",
      "type": "event"
    },
    {
      "anonymous": false,
      "inputs": [
        {
          "indexed": true,
          "internalType": "address",
          "name": "delegator",
          "type": "address"
        },
        {
          "indexed": true,
          "internalType": "address",
          "name": "fromDelegate",
          "type": "address"
        },
        {
          "indexed": true,
          "internalType": "address",
          "name": "toDelegate",
          "type": "address"
        }
      ],
      "name": "DelegateChanged",
      "type": "event"
    },
    {
      "anonymous": false,
      "inputs": [
        {
          "indexed": true,
          "internalType": "address",
          "name": "delegate",
          "type": "address"
        },
        {
          "indexed": false,
          "internalType": "uint256",
          "name": "previousBalance",
          "type": "uint256"
        },
        {
          "indexed": false,
          "internalType": "uint256",
          "name": "newBalance",
          "type": "uint256"
        }
      ],
      "name": "DelegateVotesChanged",
      "type": "event"
    },
    {
      "anonymous": false,
      "inputs": [],
      "name": "EIP712DomainChanged",
      "type": "event"
    },
    {
      "anonymous": false,
      "inputs": [
        {
          "indexed": true,
          "internalType": "address",
          "name": "from",
          "type": "address"
        },
        {
          "indexed": true,
          "internalType": "address",
          "name": "to",
          "type": "address"
        },
        {
          "indexed": false,
          "internalType": "uint256",
          "name": "value",
          "type": "uint256"
        }
      ],
      "name": "Transfer",
      "type": "event"
    },
    {
      "inputs": [],
      "name": "CLOCK_MODE",
      "outputs": [
        {
          "internalType": "string",
          "name": "",
          "type": "string"
        }
      ],
      "stateMutability": "view",
      "type": "function"
    },
    {
      "inputs": [],
      "name": "DOMAIN_SEPARATOR",
      "outputs": [
        {
          "internalType": "bytes32",
          "name": "",
          "type": "bytes32"
        }
      ],
      "stateMutability": "view",
      "type": "function"
    },
    {
      "inputs": [
        {
          "internalType": "address",
          "name": "owner",
          "type": "address"
        },
        {
          "internalType": "address",
          "name": "spender",
          "type": "address"
        }
      ],
      "name": "allowance",
      "outputs": [
        {
          "internalType": "uint256",
          "name": "",
          "type": "uint256"
        }
      ],
      "stateMutability": "view",
      "type": "function"
    },
    {
      "inputs": [
        {
          "internalType": "address",
          "name": "spender",
          "type": "address"
        },
        {
          "internalType": "uint256",
          "name": "amount",
          "type": "uint256"
        }
      ],
      "name": "approve",
      "outputs": [
        {
          "internalType": "bool",
          "name": "",
          "type": "bool"
        }
      ],
      "stateMutability": "nonpayable",
      "type": "function"
    },
    {
      "inputs": [
        {
          "internalType": "address",
          "name": "account",
          "type": "address"
        }
      ],
      "name": "balanceOf",
      "outputs": [
        {
          "internalType": "uint256",
          "name": "",
          "type": "uint256"
        }
      ],
      "stateMutability": "view",
      "type": "function"
    },
    {
      "inputs": [
        {
          "internalType": "address",
          "name": "from",
          "type": "address"
        },
        {
          "internalType": "uint256",
          "name": "amount",
          "type": "uint256"
        }
      ],
      "name": "burn",
      "outputs": [],
      "stateMutability": "nonpayable",
      "type": "function"
    },
    {
      "inputs": [
        {
          "internalType": "address",
          "name": "account",
          "type": "address"
        },
        {
          "internalType": "uint32",
          "name": "pos",
          "type": "uint32"
        }
      ],
      "name": "checkpoints",
      "outputs": [
        {
          "components": [
            {
              "internalType": "uint32",
              "name": "fromBlock",
              "type": "uint32"
            },
            {
              "internalType": "uint224",
              "name": "votes",
              "type": "uint224"
            }
          ],
          "internalType": "struct ERC20Votes.Checkpoint",
          "name": "",
          "type": "tuple"
        }
      ],
      "stateMutability": "view",
      "type": "function"
    },
    {
      "inputs": [],
      "name": "clock",
      "outputs": [
        {
          "internalType": "uint48",
          "name": "",
          "type": "uint48"
        }
      ],
      "stateMutability": "view",
      "type": "function"
    },
    {
      "inputs": [],
      "name": "decimals",
      "outputs": [
        {
          "internalType": "uint8",
          "name": "",
          "type": "uint8"
        }
      ],
      "stateMutability": "view",
      "type": "function"
    },
    {
      "inputs": [
        {
          "internalType": "address",
          "name": "spender",
          "type": "address"
        },
        {
          "internalType": "uint256",
          "name": "subtractedValue",
          "type": "uint256"
        }
      ],
      "name": "decreaseAllowance",
      "outputs": [
        {
          "internalType": "bool",
          "name": "",
          "type": "bool"
        }
      ],
      "stateMutability": "nonpayable",
      "type": "function"
    },
    {
      "inputs": [
        {
          "internalType": "address",
          "name": "delegatee",
          "type": "address"
        }
      ],
      "name": "delegate",
      "outputs": [],
      "stateMutability": "nonpayable",
      "type": "function"
    },
    {
      "inputs": [
        {
          "internalType": "address",
          "name": "delegatee",
          "type": "address"
        },
        {
          "internalType": "uint256",
          "name": "nonce",
          "type": "uint256"
        },
        {
          "internalType": "uint256",
          "name": "expiry",
          "type": "uint256"
        },
        {
          "internalType": "uint8",
          "name": "v",
          "type": "uint8"
        },
        {
          "internalType": "bytes32",
          "name": "r",
          "type": "bytes32"
        },
        {
          "internalType": "bytes32",
          "name": "s",
          "type": "bytes32"
        }
      ],
      "name": "delegateBySig",
      "outputs": [],
      "stateMutability": "nonpayable",
      "type": "function"
    },
    {
      "inputs": [
        {
          "internalType": "address",
          "name": "account",
          "type": "address"
        }
      ],
      "name": "delegates",
      "outputs": [
        {
          "internalType": "address",
          "name": "",
          "type": "address"
        }
      ],
      "stateMutability": "view",
      "type": "function"
    },
    {
      "inputs": [],
      "name": "eip712Domain",
      "outputs": [
        {
          "internalType": "bytes1",
          "name": "fields",
          "type": "bytes1"
        },
        {
          "internalType": "string",
          "name": "name",
          "type": "string"
        },
        {
          "internalType": "string",
          "name": "version",
          "type": "string"
        },
        {
          "internalType": "uint256",
          "name": "chainId",
          "type": "uint256"
        },
        {
          "internalType": "address",
          "name": "verifyingContract",
          "type": "address"
        },
        {
          "internalType": "bytes32",
          "name": "salt",
          "type": "bytes32"
        },
        {
          "internalType": "uint256[]",
          "name": "extensions",
          "type": "uint256[]"
        }
      ],
      "stateMutability": "view",
      "type": "function"
    },
    {
      "inputs": [
        {
          "internalType": "uint256",
          "name": "timepoint",
          "type": "uint256"
        }
      ],
      "name": "getPastTotalSupply",
      "outputs": [
        {
          "internalType": "uint256",
          "name": "",
          "type": "uint256"
        }
      ],
      "stateMutability": "view",
      "type": "function"
    },
    {
      "inputs": [
        {
          "internalType": "address",
          "name": "account",
          "type": "address"
        },
        {
          "internalType": "uint256",
          "name": "timepoint",
          "type": "uint256"
        }
      ],
      "name": "getPastVotes",
      "outputs": [
        {
          "internalType": "uint256",
          "name": "",
          "type": "uint256"
        }
      ],
      "stateMutability": "view",
      "type": "function"
    },
    {
      "inputs": [
        {
          "internalType": "address",
          "name": "account",
          "type": "address"
        }
      ],
      "name": "getVotes",
      "outputs": [
        {
          "internalType": "uint256",
          "name": "",
          "type": "uint256"
        }
      ],
      "stateMutability": "view",
      "type": "function"
    },
    {
      "inputs": [
        {
          "internalType": "address",
          "name": "spender",
          "type": "address"
        },
        {
          "internalType": "uint256",
          "name": "addedValue",
          "type": "uint256"
        }
      ],
      "name": "increaseAllowance",
      "outputs": [
        {
          "internalType": "bool",
          "name": "",
          "type": "bool"
        }
      ],
      "stateMutability": "nonpayable",
      "type": "function"
    },
    {
      "inputs": [
        {
          "internalType": "address",
          "name": "to",
          "type": "address"
        },
        {
          "internalType": "uint256",
          "name": "amount",
          "type": "uint256"
        }
      ],
      "name": "mint",
      "outputs": [],
      "stateMutability": "nonpayable",
      "type": "function"
    },
    {
      "inputs": [],
      "name": "name",
      "outputs": [
        {
          "internalType": "string",
          "name": "",
          "type": "string"
        }
      ],
      "stateMutability": "view",
      "type": "function"
    },
    {
      "inputs": [
        {
          "internalType": "address",
          "name": "owner",
          "type": "address"
        }
      ],
      "name": "nonces",
      "outputs": [
        {
          "internalType": "uint256",
          "name": "",
          "type": "uint256"
        }
      ],
      "stateMutability": "view",
      "type": "function"
    },
    {
      "inputs": [
        {
          "internalType": "address",
          "name": "account",
          "type": "address"
        }
      ],
      "name": "numCheckpoints",
      "outputs": [
        {
          "internalType": "uint32",
          "name": "",
          "type": "uint32"
        }
      ],
      "stateMutability": "view",
      "type": "function"
    },
    {
      "inputs": [
        {
          "internalType": "address",
          "name": "owner",
          "type": "address"
        },
        {
          "internalType": "address",
          "name": "spender",
          "type": "address"
        },
        {
          "internalType": "uint256",
          "name": "value",
          "type": "uint256"
        },
        {
          "internalType": "uint256",
          "name": "deadline",
          "type": "uint256"
        },
        {
          "internalType": "uint8",
          "name": "v",
          "type": "uint8"
        },
        {
          "internalType": "bytes32",
          "name": "r",
          "type": "bytes32"
        },
        {
          "internalType": "bytes32",
          "name": "s",
          "type": "bytes32"
        }
      ],
      "name": "permit",
      "outputs": [],
      "stateMutability": "nonpayable",
      "type": "function"
    },
    {
      "inputs": [],
      "name": "symbol",
      "outputs": [
        {
          "internalType": "string",
          "name": "",
          "type": "string"
        }
      ],
      "stateMutability": "view",
      "type": "function"
    },
    {
      "inputs": [],
      "name": "tokenLocker",
      "outputs": [
        {
          "internalType": "address",
          "name": "",
          "type": "address"
        }
      ],
      "stateMutability": "view",
      "type": "function"
    },
    {
      "inputs": [],
      "name": "totalSupply",
      "outputs": [
        {
          "internalType": "uint256",
          "name": "",
          "type": "uint256"
        }
      ],
      "stateMutability": "view",
      "type": "function"
    },
    {
      "inputs": [
        {
          "internalType": "address",
          "name": "to",
          "type": "address"
        },
        {
          "internalType": "uint256",
          "name": "amount",
          "type": "uint256"
        }
      ],
      "name": "transfer",
      "outputs": [
        {
          "internalType": "bool",
          "name": "",
          "type": "bool"
        }
      ],
      "stateMutability": "nonpayable",
      "type": "function"
    },
    {
      "inputs": [
        {
          "internalType": "address",
          "name": "from",
          "type": "address"
        },
        {
          "internalType": "address",
          "name": "to",
          "type": "address"
        },
        {
          "internalType": "uint256",
          "name": "amount",
          "type": "uint256"
        }
      ],
      "name": "transferFrom",
      "outputs": [
        {
          "internalType": "bool",
          "name": "",
          "type": "bool"
        }
      ],
      "stateMutability": "nonpayable",
      "type": "function"
    }
  ],
  "bytecode": {
    "object": "0x6101806040523480156200001257600080fd5b50604051620027a7380380620027a783398101604081905262000035916200027e565b6040518060400160405280601881526020017f4175786f2041637469766520526577617264205661756c74000000000000000081525080604051806040016040528060018152602001603160f81b8152506040518060400160405280601881526020017f4175786f2041637469766520526577617264205661756c7400000000000000008152506040518060400160405280600381526020016220a92b60e91b8152508160039081620000e9919062000355565b506004620000f8828262000355565b50505062000116600583620001df60201b62000cb51790919060201c565b60e05262000132816006620001df602090811b62000cb517901c565b61010052815160208084019190912061012052815190820120610140524660a052620001c26101205161014051604080517f8b73c3c69bb8fe3d512ecc4cf759cc79239f7b179b0ffacaa9a75d522b39400f60208201529081019290925260608201524660808201523060a082015260009060c00160405160208183030381529060405280519060200120905090565b60805250503060c052506001600160a01b03166101605262000496565b6000602083511015620001ff57620001f7836200022f565b905062000229565b8262000216836200027b60201b62000ce61760201c565b9062000223908262000355565b5060ff90505b92915050565b600080829050601f8151111562000266578260405163305a27a960e01b81526004016200025d919062000421565b60405180910390fd5b8051620002738262000471565b179392505050565b90565b6000602082840312156200029157600080fd5b81516001600160a01b0381168114620002a957600080fd5b9392505050565b634e487b7160e01b600052604160045260246000fd5b600181811c90821680620002db57607f821691505b602082108103620002fc57634e487b7160e01b600052602260045260246000fd5b50919050565b601f8211156200035057600081815260208120601f850160051c810160208610156200032b5750805b601f850160051c820191505b818110156200034c5782815560010162000337565b5050505b505050565b81516001600160401b03811115620003715762000371620002b0565b6200038981620003828454620002c6565b8462000302565b602080601f831160018114620003c15760008415620003a85750858301515b600019600386901b1c1916600185901b1785556200034c565b600085815260208120601f198616915b82811015620003f257888601518255948401946001909101908401620003d1565b5085821015620004115787850151600019600388901b60f8161c191681555b5050505050600190811b01905550565b600060208083528351808285015260005b81811015620004505785810183015185820160400152820162000432565b506000604082860101526040601f19601f8301168501019250505092915050565b80516020808301519190811015620002fc5760001960209190910360031b1b16919050565b60805160a05160c05160e0516101005161012051610140516101605161229d6200050a600039600081816103d70152818161060f015261089301526000610ef701526000610ecf0152600061073e0152600061071301526000610e2a01526000610e5401526000610e7e015261229d6000f3fe608060405234801561001057600080fd5b50600436106101c45760003560e01c80637ecebe00116100f9578063a457c2d711610097578063c3cda52011610071578063c3cda5201461040c578063d505accf1461041f578063dd62ed3e14610432578063f1127ed81461044557600080fd5b8063a457c2d7146103bf578063a80bf3e6146103d2578063a9059cbb146103f957600080fd5b806391ddadf4116100d357806391ddadf41461037257806395d89b41146103915780639ab24eb0146103995780639dc29fac146103ac57600080fd5b80637ecebe001461033157806384b0196e146103445780638e539e8c1461035f57600080fd5b80633a46b1a811610166578063587cde1e11610140578063587cde1e146102895780635c19a95c146102cd5780636fcfff45146102e057806370a082311461030857600080fd5b80633a46b1a81461025957806340c10f191461026c5780634bf5d7e91461028157600080fd5b806323b872dd116101a257806323b872dd1461021c578063313ce5671461022f5780633644e5151461023e578063395093511461024657600080fd5b806306fdde03146101c9578063095ea7b3146101e757806318160ddd1461020a575b600080fd5b6101d1610482565b6040516101de9190611d64565b60405180910390f35b6101fa6101f5366004611d93565b610514565b60405190151581526020016101de565b6002545b6040519081526020016101de565b6101fa61022a366004611dbd565b61052e565b604051601281526020016101de565b61020e610552565b6101fa610254366004611d93565b610561565b61020e610267366004611d93565b610583565b61027f61027a366004611d93565b61060d565b005b6101d1610663565b6102b5610297366004611df9565b6001600160a01b039081166000908152600960205260409020541690565b6040516001600160a01b0390911681526020016101de565b61027f6102db366004611df9565b6106b8565b6102f36102ee366004611df9565b6106c5565b60405163ffffffff90911681526020016101de565b61020e610316366004611df9565b6001600160a01b031660009081526020819052604090205490565b61020e61033f366004611df9565b6106e7565b61034c610705565b6040516101de9796959493929190611e14565b61020e61036d366004611eaa565b61078e565b61037a6107f5565b60405165ffffffffffff90911681526020016101de565b6101d1610800565b61020e6103a7366004611df9565b61080f565b61027f6103ba366004611d93565b610891565b6101fa6103cd366004611d93565b6108e3565b6102b57f000000000000000000000000000000000000000000000000000000000000000081565b6101fa610407366004611d93565b61095e565b61027f61041a366004611ed4565b61096c565b61027f61042d366004611f2c565b610aa2565b61020e610440366004611f96565b610c06565b610458610453366004611fc9565b610c31565b60408051825163ffffffff1681526020928301516001600160e01b031692810192909252016101de565b60606003805461049190612009565b80601f01602080910402602001604051908101604052809291908181526020018280546104bd90612009565b801561050a5780601f106104df5761010080835404028352916020019161050a565b820191906000526020600020905b8154815290600101906020018083116104ed57829003601f168201915b5050505050905090565b600033610522818585610ce9565b60019150505b92915050565b60003361053c858285610d46565b610547858585610dc0565b506001949350505050565b600061055c610e1d565b905090565b6000336105228185856105748383610c06565b61057e9190612053565b610ce9565b600061058d6107f5565b65ffffffffffff1682106105e45760405162461bcd60e51b815260206004820152601960248201527804552433230566f7465733a20667574757265206c6f6f6b757603c1b60448201526064015b60405180910390fd5b6001600160a01b0383166000908152600a602052604090206106069083610f48565b9392505050565b7f00000000000000000000000000000000000000000000000000000000000000006001600160a01b031633146106555760405162461bcd60e51b81526004016105db90612066565b61065f8282611031565b5050565b60604361066e6107f5565b65ffffffffffff161461068057600080fd5b5060408051808201909152601d81527f6d6f64653d626c6f636b6e756d6265722666726f6d3d64656661756c74000000602082015290565b6106c2338261103b565b50565b6001600160a01b0381166000908152600a6020526040812054610528906110b4565b6001600160a01b038116600090815260076020526040812054610528565b6000606080828080836107397f0000000000000000000000000000000000000000000000000000000000000000600561111d565b6107647f0000000000000000000000000000000000000000000000000000000000000000600661111d565b60408051600080825260208201909252600f60f81b9b939a50919850469750309650945092509050565b60006107986107f5565b65ffffffffffff1682106107ea5760405162461bcd60e51b815260206004820152601960248201527804552433230566f7465733a20667574757265206c6f6f6b757603c1b60448201526064016105db565b610528600b83610f48565b600061055c436111c1565b60606004805461049190612009565b6001600160a01b0381166000908152600a6020526040812054801561087e576001600160a01b0383166000908152600a602052604090208054600019830190811061085c5761085c6120be565b60009182526020909120015464010000000090046001600160e01b0316610881565b60005b6001600160e01b03169392505050565b7f00000000000000000000000000000000000000000000000000000000000000006001600160a01b031633146108d95760405162461bcd60e51b81526004016105db90612066565b61065f8282611228565b600033816108f18286610c06565b9050838110156109515760405162461bcd60e51b815260206004820152602560248201527f45524332303a2064656372656173656420616c6c6f77616e63652062656c6f77604482015264207a65726f60d81b60648201526084016105db565b6105478286868403610ce9565b600033610522818585610dc0565b834211156109bc5760405162461bcd60e51b815260206004820152601d60248201527f4552433230566f7465733a207369676e6174757265206578706972656400000060448201526064016105db565b604080517fe48329057bfd03d55e49b547132e39cffd9c1820ad7b9d4c5307691425d15adf60208201526001600160a01b038816918101919091526060810186905260808101859052600090610a3690610a2e9060a00160405160208183030381529060405280519060200120611232565b85858561125f565b9050610a4181611287565b8614610a8f5760405162461bcd60e51b815260206004820152601960248201527f4552433230566f7465733a20696e76616c6964206e6f6e63650000000000000060448201526064016105db565b610a99818861103b565b50505050505050565b83421115610af25760405162461bcd60e51b815260206004820152601d60248201527f45524332305065726d69743a206578706972656420646561646c696e6500000060448201526064016105db565b60007f6e71edae12b1b97f4d1f60370fef10105fa2faae0126114a169c64845d6126c9888888610b218c611287565b6040805160208101969096526001600160a01b0394851690860152929091166060840152608083015260a082015260c0810186905260e0016040516020818303038152906040528051906020012090506000610b7c82611232565b90506000610b8c8287878761125f565b9050896001600160a01b0316816001600160a01b031614610bef5760405162461bcd60e51b815260206004820152601e60248201527f45524332305065726d69743a20696e76616c6964207369676e6174757265000060448201526064016105db565b610bfa8a8a8a610ce9565b50505050505050505050565b6001600160a01b03918216600090815260016020908152604080832093909416825291909152205490565b60408051808201909152600080825260208201526001600160a01b0383166000908152600a60205260409020805463ffffffff8416908110610c7557610c756120be565b60009182526020918290206040805180820190915291015463ffffffff8116825264010000000090046001600160e01b0316918101919091529392505050565b6000602083511015610cd157610cca836112af565b9050610528565b81610cdc8482612122565b5060ff9050610528565b90565b60405162461bcd60e51b815260206004820152602c60248201527f45524332304e6f6e5472616e7366657261626c653a20417070726f76616c206e60448201526b1bdd081cdd5c1c1bdc9d195960a21b60648201526084016105db565b6000610d528484610c06565b90506000198114610dba5781811015610dad5760405162461bcd60e51b815260206004820152601d60248201527f45524332303a20696e73756666696369656e7420616c6c6f77616e636500000060448201526064016105db565b610dba8484848403610ce9565b50505050565b60405162461bcd60e51b815260206004820152602c60248201527f45524332304e6f6e5472616e7366657261626c653a205472616e73666572206e60448201526b1bdd081cdd5c1c1bdc9d195960a21b60648201526084016105db565b6000306001600160a01b037f000000000000000000000000000000000000000000000000000000000000000016148015610e7657507f000000000000000000000000000000000000000000000000000000000000000046145b15610ea057507f000000000000000000000000000000000000000000000000000000000000000090565b61055c604080517f8b73c3c69bb8fe3d512ecc4cf759cc79239f7b179b0ffacaa9a75d522b39400f60208201527f0000000000000000000000000000000000000000000000000000000000000000918101919091527f000000000000000000000000000000000000000000000000000000000000000060608201524660808201523060a082015260009060c00160405160208183030381529060405280519060200120905090565b815460009081816005811115610fa2576000610f63846112ed565b610f6d90856121e2565b600088815260209020909150869082015463ffffffff161115610f9257809150610fa0565b610f9d816001612053565b92505b505b80821015610fef576000610fb683836113d5565b600088815260209020909150869082015463ffffffff161115610fdb57809150610fe9565b610fe6816001612053565b92505b50610fa2565b801561101b576000868152602090208101600019015464010000000090046001600160e01b031661101e565b60005b6001600160e01b03169695505050505050565b61065f82826113f0565b6001600160a01b038281166000818152600960208181526040808420805485845282862054949093528787166001600160a01b03198416811790915590519190951694919391928592917f3134e8a2e6d97e929a7e54011ea5485d7d196dd5f0ba4d4ef95803e8e3fc257f9190a4610dba82848361147a565b600063ffffffff8211156111195760405162461bcd60e51b815260206004820152602660248201527f53616665436173743a2076616c756520646f65736e27742066697420696e203360448201526532206269747360d01b60648201526084016105db565b5090565b606060ff831461113057610cca836115b8565b81805461113c90612009565b80601f016020809104026020016040519081016040528092919081815260200182805461116890612009565b80156111b55780601f1061118a576101008083540402835291602001916111b5565b820191906000526020600020905b81548152906001019060200180831161119857829003601f168201915b50505050509050610528565b600065ffffffffffff8211156111195760405162461bcd60e51b815260206004820152602660248201527f53616665436173743a2076616c756520646f65736e27742066697420696e203460448201526538206269747360d01b60648201526084016105db565b61065f82826115f7565b600061052861123f610e1d565b8360405161190160f01b8152600281019290925260228201526042902090565b60008060006112708787878761160f565b9150915061127d816116d3565b5095945050505050565b6001600160a01b03811660009081526007602052604090208054600181018255905b50919050565b600080829050601f815111156112da578260405163305a27a960e01b81526004016105db9190611d64565b80516112e5826121f5565b179392505050565b6000816000036112ff57506000919050565b6000600161130c8461181d565b901c6001901b9050600181848161132557611325612219565b048201901c9050600181848161133d5761133d612219565b048201901c9050600181848161135557611355612219565b048201901c9050600181848161136d5761136d612219565b048201901c9050600181848161138557611385612219565b048201901c9050600181848161139d5761139d612219565b048201901c905060018184816113b5576113b5612219565b048201901c9050610606818285816113cf576113cf612219565b046118b1565b60006113e4600284841861222f565b61060690848416612053565b6113fa82826118c7565b6002546001600160e01b03101561146c5760405162461bcd60e51b815260206004820152603060248201527f4552433230566f7465733a20746f74616c20737570706c79207269736b73206f60448201526f766572666c6f77696e6720766f74657360801b60648201526084016105db565b610dba600b61198e8361199a565b816001600160a01b0316836001600160a01b03161415801561149c5750600081115b156115b3576001600160a01b0383161561152a576001600160a01b0383166000908152600a6020526040812081906114d790611b0f8561199a565b91509150846001600160a01b03167fdec2bacdd2f05b59de34da9b523dff8be42e5e38e818c82fdb0bae774387a724838360405161151f929190918252602082015260400190565b60405180910390a250505b6001600160a01b038216156115b3576001600160a01b0382166000908152600a6020526040812081906115609061198e8561199a565b91509150836001600160a01b03167fdec2bacdd2f05b59de34da9b523dff8be42e5e38e818c82fdb0bae774387a72483836040516115a8929190918252602082015260400190565b60405180910390a250505b505050565b606060006115c583611b1b565b604080516020808252818301909252919250600091906020820181803683375050509182525060208101929092525090565b6116018282611b43565b610dba600b611b0f8361199a565b6000807f7fffffffffffffffffffffffffffffff5d576e7357a4501ddfe92f46681b20a083111561164657506000905060036116ca565b6040805160008082526020820180845289905260ff881692820192909252606081018690526080810185905260019060a0016020604051602081039080840390855afa15801561169a573d6000803e3d6000fd5b5050604051601f1901519150506001600160a01b0381166116c3576000600192509250506116ca565b9150600090505b94509492505050565b60008160048111156116e7576116e7612251565b036116ef5750565b600181600481111561170357611703612251565b036117505760405162461bcd60e51b815260206004820152601860248201527f45434453413a20696e76616c6964207369676e6174757265000000000000000060448201526064016105db565b600281600481111561176457611764612251565b036117b15760405162461bcd60e51b815260206004820152601f60248201527f45434453413a20696e76616c6964207369676e6174757265206c656e6774680060448201526064016105db565b60038160048111156117c5576117c5612251565b036106c25760405162461bcd60e51b815260206004820152602260248201527f45434453413a20696e76616c6964207369676e6174757265202773272076616c604482015261756560f01b60648201526084016105db565b600080608083901c1561183257608092831c92015b604083901c1561184457604092831c92015b602083901c1561185657602092831c92015b601083901c1561186857601092831c92015b600883901c1561187a57600892831c92015b600483901c1561188c57600492831c92015b600283901c1561189e57600292831c92015b600183901c156105285760010192915050565b60008183106118c05781610606565b5090919050565b6001600160a01b03821661191d5760405162461bcd60e51b815260206004820152601f60248201527f45524332303a206d696e7420746f20746865207a65726f20616464726573730060448201526064016105db565b806002600082825461192f9190612053565b90915550506001600160a01b038216600081815260208181526040808320805486019055518481527fddf252ad1be2c89b69c2b068fc378daa952ba7f163c4a11628f55a4df523b3ef910160405180910390a361065f60008383611c78565b60006106068284612053565b825460009081908181156119e75760008781526020902082016000190160408051808201909152905463ffffffff8116825264010000000090046001600160e01b031660208201526119fc565b60408051808201909152600080825260208201525b905080602001516001600160e01b03169350611a1c84868863ffffffff16565b9250600082118015611a465750611a316107f5565b65ffffffffffff16816000015163ffffffff16145b15611a8b57611a5483611c83565b60008881526020902083016000190180546001600160e01b03929092166401000000000263ffffffff909216919091179055611b05565b866040518060400160405280611aaf611aa26107f5565b65ffffffffffff166110b4565b63ffffffff168152602001611ac386611c83565b6001600160e01b0390811690915282546001810184556000938452602093849020835194909301519091166401000000000263ffffffff909316929092179101555b5050935093915050565b600061060682846121e2565b600060ff8216601f81111561052857604051632cd44ac360e21b815260040160405180910390fd5b6001600160a01b038216611ba35760405162461bcd60e51b815260206004820152602160248201527f45524332303a206275726e2066726f6d20746865207a65726f206164647265736044820152607360f81b60648201526084016105db565b6001600160a01b03821660009081526020819052604090205481811015611c175760405162461bcd60e51b815260206004820152602260248201527f45524332303a206275726e20616d6f756e7420657863656564732062616c616e604482015261636560f01b60648201526084016105db565b6001600160a01b0383166000818152602081815260408083208686039055600280548790039055518581529192917fddf252ad1be2c89b69c2b068fc378daa952ba7f163c4a11628f55a4df523b3ef910160405180910390a36115b3836000845b6115b3838383611cec565b60006001600160e01b038211156111195760405162461bcd60e51b815260206004820152602760248201527f53616665436173743a2076616c756520646f65736e27742066697420696e20326044820152663234206269747360c81b60648201526084016105db565b6001600160a01b038381166000908152600960205260408082205485841683529120546115b39291821691168361147a565b6000815180845260005b81811015611d4457602081850181015186830182015201611d28565b506000602082860101526020601f19601f83011685010191505092915050565b6020815260006106066020830184611d1e565b80356001600160a01b0381168114611d8e57600080fd5b919050565b60008060408385031215611da657600080fd5b611daf83611d77565b946020939093013593505050565b600080600060608486031215611dd257600080fd5b611ddb84611d77565b9250611de960208501611d77565b9150604084013590509250925092565b600060208284031215611e0b57600080fd5b61060682611d77565b60ff60f81b881681526000602060e081840152611e3460e084018a611d1e565b8381036040850152611e46818a611d1e565b606085018990526001600160a01b038816608086015260a0850187905284810360c0860152855180825283870192509083019060005b81811015611e9857835183529284019291840191600101611e7c565b50909c9b505050505050505050505050565b600060208284031215611ebc57600080fd5b5035919050565b803560ff81168114611d8e57600080fd5b60008060008060008060c08789031215611eed57600080fd5b611ef687611d77565b95506020870135945060408701359350611f1260608801611ec3565b92506080870135915060a087013590509295509295509295565b600080600080600080600060e0888a031215611f4757600080fd5b611f5088611d77565b9650611f5e60208901611d77565b95506040880135945060608801359350611f7a60808901611ec3565b925060a0880135915060c0880135905092959891949750929550565b60008060408385031215611fa957600080fd5b611fb283611d77565b9150611fc060208401611d77565b90509250929050565b60008060408385031215611fdc57600080fd5b611fe583611d77565b9150602083013563ffffffff81168114611ffe57600080fd5b809150509250929050565b600181811c9082168061201d57607f821691505b6020821081036112a957634e487b7160e01b600052602260045260246000fd5b634e487b7160e01b600052601160045260246000fd5b808201808211156105285761052861203d565b60208082526022908201527f4152563a2063616c6c6572206973206e6f742074686520546f6b656e4c6f636b60408201526132b960f11b606082015260800190565b634e487b7160e01b600052604160045260246000fd5b634e487b7160e01b600052603260045260246000fd5b601f8211156115b357600081815260208120601f850160051c810160208610156120fb5750805b601f850160051c820191505b8181101561211a57828155600101612107565b505050505050565b815167ffffffffffffffff81111561213c5761213c6120a8565b6121508161214a8454612009565b846120d4565b602080601f831160018114612185576000841561216d5750858301515b600019600386901b1c1916600185901b17855561211a565b600085815260208120601f198616915b828110156121b457888601518255948401946001909101908401612195565b50858210156121d25787850151600019600388901b60f8161c191681555b5050505050600190811b01905550565b818103818111156105285761052861203d565b805160208083015191908110156112a95760001960209190910360031b1b16919050565b634e487b7160e01b600052601260045260246000fd5b60008261224c57634e487b7160e01b600052601260045260246000fd5b500490565b634e487b7160e01b600052602160045260246000fdfea2646970667358221220406d690988a55c9f839be220be31f65db88456eada233dce1c61f6093fa4fcd864736f6c63430008100033",
    "linkReferences": {}
  },
  "methodIdentifiers": {
    "CLOCK_MODE()": "4bf5d7e9",
    "DOMAIN_SEPARATOR()": "3644e515",
    "allowance(address,address)": "dd62ed3e",
    "approve(address,uint256)": "095ea7b3",
    "balanceOf(address)": "70a08231",
    "burn(address,uint256)": "9dc29fac",
    "checkpoints(address,uint32)": "f1127ed8",
    "clock()": "91ddadf4",
    "decimals()": "313ce567",
    "decreaseAllowance(address,uint256)": "a457c2d7",
    "delegate(address)": "5c19a95c",
    "delegateBySig(address,uint256,uint256,uint8,bytes32,bytes32)": "c3cda520",
    "delegates(address)": "587cde1e",
    "eip712Domain()": "84b0196e",
    "getPastTotalSupply(uint256)": "8e539e8c",
    "getPastVotes(address,uint256)": "3a46b1a8",
    "getVotes(address)": "9ab24eb0",
    "increaseAllowance(address,uint256)": "39509351",
    "mint(address,uint256)": "40c10f19",
    "name()": "06fdde03",
    "nonces(address)": "7ecebe00",
    "numCheckpoints(address)": "6fcfff45",
    "permit(address,address,uint256,uint256,uint8,bytes32,bytes32)": "d505accf",
    "symbol()": "95d89b41",
    "tokenLocker()": "a80bf3e6",
    "totalSupply()": "18160ddd",
    "transfer(address,uint256)": "a9059cbb",
    "transferFrom(address,address,uint256)": "23b872dd"
  },
  "id": 113
}