{
  "abi": [
    {
      "inputs": [],
      "stateMutability": "nonpayable",
      "type": "constructor"
    },
    {
      "anonymous": false,
      "inputs": [
        {
          "indexed": false,
          "internalType": "uint192",
          "name": "amount",
          "type": "uint192"
        },
        {
          "indexed": true,
          "internalType": "address",
          "name": "owner",
          "type": "address"
        }
      ],
      "name": "BoostedToMax",
      "type": "event"
    },
    {
      "anonymous": false,
      "inputs": [
        {
          "indexed": false,
          "internalType": "uint192",
          "name": "amount",
          "type": "uint192"
        },
        {
          "indexed": false,
          "internalType": "uint32",
          "name": "lockDuration",
          "type": "uint32"
        },
        {
          "indexed": true,
          "internalType": "address",
          "name": "owner",
          "type": "address"
        }
      ],
      "name": "Deposited",
      "type": "event"
    },
    {
      "anonymous": false,
      "inputs": [
        {
          "indexed": false,
          "internalType": "address",
          "name": "lockOwner",
          "type": "address"
        },
        {
          "indexed": false,
          "internalType": "uint256",
          "name": "amount",
          "type": "uint256"
        }
      ],
      "name": "EarlyExit",
      "type": "event"
    },
    {
      "anonymous": false,
      "inputs": [
        {
          "indexed": false,
          "internalType": "uint256",
          "name": "afterFee",
          "type": "uint256"
        }
      ],
      "name": "EarlyExitFeeChanged",
      "type": "event"
    },
    {
      "anonymous": false,
      "inputs": [
        {
          "indexed": false,
          "internalType": "uint32",
          "name": "newEjectBuffer",
          "type": "uint32"
        }
      ],
      "name": "EjectBufferUpdated",
      "type": "event"
    },
    {
      "anonymous": false,
      "inputs": [
        {
          "indexed": false,
          "internalType": "uint192",
          "name": "amount",
          "type": "uint192"
        },
        {
          "indexed": true,
          "internalType": "address",
          "name": "owner",
          "type": "address"
        }
      ],
      "name": "Ejected",
      "type": "event"
    },
    {
      "anonymous": false,
      "inputs": [
        {
          "indexed": false,
          "internalType": "uint192",
          "name": "amount",
          "type": "uint192"
        },
        {
          "indexed": true,
          "internalType": "address",
          "name": "owner",
          "type": "address"
        }
      ],
      "name": "IncreasedAmount",
      "type": "event"
    },
    {
      "anonymous": false,
      "inputs": [
        {
          "indexed": false,
          "internalType": "uint192",
          "name": "amount",
          "type": "uint192"
        },
        {
          "indexed": false,
          "internalType": "uint32",
          "name": "lockDuration",
          "type": "uint32"
        },
        {
          "indexed": false,
          "internalType": "uint32",
          "name": "lockedAt",
          "type": "uint32"
        },
        {
          "indexed": true,
          "internalType": "address",
          "name": "owner",
          "type": "address"
        }
      ],
      "name": "IncreasedDuration",
      "type": "event"
    },
    {
      "anonymous": false,
      "inputs": [
        {
          "indexed": false,
          "internalType": "uint8",
          "name": "version",
          "type": "uint8"
        }
      ],
      "name": "Initialized",
      "type": "event"
    },
    {
      "anonymous": false,
      "inputs": [
        {
          "indexed": true,
          "internalType": "address",
          "name": "account",
          "type": "address"
        },
        {
          "indexed": false,
          "internalType": "uint256",
          "name": "amountDepositMigrated",
          "type": "uint256"
        }
      ],
      "name": "Migrated",
      "type": "event"
    },
    {
      "anonymous": false,
      "inputs": [
        {
          "indexed": false,
          "internalType": "bool",
          "name": "enabled",
          "type": "bool"
        }
      ],
      "name": "MigrationEnabledChanged",
      "type": "event"
    },
    {
      "anonymous": false,
      "inputs": [
        {
          "indexed": true,
          "internalType": "address",
          "name": "newMigrator",
          "type": "address"
        }
      ],
      "name": "MigratorUpdated",
      "type": "event"
    },
    {
      "anonymous": false,
      "inputs": [
        {
          "indexed": false,
          "internalType": "uint192",
          "name": "newLockAmount",
          "type": "uint192"
        }
      ],
      "name": "MinLockAmountChanged",
      "type": "event"
    },
    {
      "anonymous": false,
      "inputs": [
        {
          "indexed": false,
          "internalType": "address",
          "name": "prv",
          "type": "address"
        }
      ],
      "name": "PRVAddressChanged",
      "type": "event"
    },
    {
      "anonymous": false,
      "inputs": [
        {
          "indexed": false,
          "internalType": "address",
          "name": "_newBeneficiary",
          "type": "address"
        }
      ],
      "name": "PenaltyBeneficiaryChanged",
      "type": "event"
    },
    {
      "anonymous": false,
      "inputs": [
        {
          "indexed": true,
          "internalType": "bytes32",
          "name": "role",
          "type": "bytes32"
        },
        {
          "indexed": true,
          "internalType": "bytes32",
          "name": "previousAdminRole",
          "type": "bytes32"
        },
        {
          "indexed": true,
          "internalType": "bytes32",
          "name": "newAdminRole",
          "type": "bytes32"
        }
      ],
      "name": "RoleAdminChanged",
      "type": "event"
    },
    {
      "anonymous": false,
      "inputs": [
        {
          "indexed": true,
          "internalType": "bytes32",
          "name": "role",
          "type": "bytes32"
        },
        {
          "indexed": true,
          "internalType": "address",
          "name": "account",
          "type": "address"
        },
        {
          "indexed": true,
          "internalType": "address",
          "name": "sender",
          "type": "address"
        }
      ],
      "name": "RoleGranted",
      "type": "event"
    },
    {
      "anonymous": false,
      "inputs": [
        {
          "indexed": true,
          "internalType": "bytes32",
          "name": "role",
          "type": "bytes32"
        },
        {
          "indexed": true,
          "internalType": "address",
          "name": "account",
          "type": "address"
        },
        {
          "indexed": true,
          "internalType": "address",
          "name": "sender",
          "type": "address"
        }
      ],
      "name": "RoleRevoked",
      "type": "event"
    },
    {
      "anonymous": false,
      "inputs": [
        {
          "indexed": true,
          "internalType": "address",
          "name": "account",
          "type": "address"
        },
        {
          "indexed": true,
          "internalType": "bool",
          "name": "whitelisted",
          "type": "bool"
        }
      ],
      "name": "WhitelistedChanged",
      "type": "event"
    },
    {
      "anonymous": false,
      "inputs": [
        {
          "indexed": false,
          "internalType": "uint192",
          "name": "amount",
          "type": "uint192"
        },
        {
          "indexed": true,
          "internalType": "address",
          "name": "owner",
          "type": "address"
        }
      ],
      "name": "Withdrawn",
      "type": "event"
    },
    {
      "inputs": [],
      "name": "COMPOUNDER_ROLE",
      "outputs": [
        {
          "internalType": "bytes32",
          "name": "",
          "type": "bytes32"
        }
      ],
      "stateMutability": "view",
      "type": "function"
    },
    {
      "inputs": [],
      "name": "DEFAULT_ADMIN_ROLE",
      "outputs": [
        {
          "internalType": "bytes32",
          "name": "",
          "type": "bytes32"
        }
      ],
      "stateMutability": "view",
      "type": "function"
    },
    {
      "inputs": [],
      "name": "HUNDRED_PERCENT",
      "outputs": [
        {
          "internalType": "uint256",
          "name": "",
          "type": "uint256"
        }
      ],
      "stateMutability": "view",
      "type": "function"
    },
    {
      "inputs": [],
      "name": "PRV",
      "outputs": [
        {
          "internalType": "address",
          "name": "",
          "type": "address"
        }
      ],
      "stateMutability": "view",
      "type": "function"
    },
    {
      "inputs": [],
      "name": "boostToMax",
      "outputs": [],
      "stateMutability": "nonpayable",
      "type": "function"
    },
    {
      "inputs": [
        {
          "internalType": "address",
          "name": "_account",
          "type": "address"
        }
      ],
      "name": "canEject",
      "outputs": [
        {
          "internalType": "bool",
          "name": "",
          "type": "bool"
        }
      ],
      "stateMutability": "view",
      "type": "function"
    },
    {
      "inputs": [
        {
          "internalType": "uint192",
          "name": "_amount",
          "type": "uint192"
        },
        {
          "internalType": "uint256",
          "name": "_months",
          "type": "uint256"
        },
        {
          "internalType": "address",
          "name": "_receiver",
          "type": "address"
        }
      ],
      "name": "depositByMonths",
      "outputs": [],
      "stateMutability": "nonpayable",
      "type": "function"
    },
    {
      "inputs": [
        {
          "internalType": "uint192",
          "name": "_amount",
          "type": "uint192"
        },
        {
          "internalType": "uint256",
          "name": "_months",
          "type": "uint256"
        },
        {
          "internalType": "address",
          "name": "_receiver",
          "type": "address"
        },
        {
          "internalType": "uint256",
          "name": "_deadline",
          "type": "uint256"
        },
        {
          "internalType": "uint8",
          "name": "v",
          "type": "uint8"
        },
        {
          "internalType": "bytes32",
          "name": "r",
          "type": "bytes32"
        },
        {
          "internalType": "bytes32",
          "name": "s",
          "type": "bytes32"
        }
      ],
      "name": "depositByMonthsWithSignature",
      "outputs": [],
      "stateMutability": "nonpayable",
      "type": "function"
    },
    {
      "inputs": [],
      "name": "depositToken",
      "outputs": [
        {
          "internalType": "contract IERC20",
          "name": "",
          "type": "address"
        }
      ],
      "stateMutability": "view",
      "type": "function"
    },
    {
      "inputs": [],
      "name": "earlyExitFee",
      "outputs": [
        {
          "internalType": "uint256",
          "name": "",
          "type": "uint256"
        }
      ],
      "stateMutability": "view",
      "type": "function"
    },
    {
      "inputs": [
        {
          "internalType": "address[]",
          "name": "_lockAccounts",
          "type": "address[]"
        }
      ],
      "name": "eject",
      "outputs": [],
      "stateMutability": "nonpayable",
      "type": "function"
    },
    {
      "inputs": [],
      "name": "ejectBuffer",
      "outputs": [
        {
          "internalType": "uint32",
          "name": "",
          "type": "uint32"
        }
      ],
      "stateMutability": "view",
      "type": "function"
    },
    {
      "inputs": [],
      "name": "emergencyUnlockTriggered",
      "outputs": [
        {
          "internalType": "bool",
          "name": "",
          "type": "bool"
        }
      ],
      "stateMutability": "view",
      "type": "function"
    },
    {
      "inputs": [],
      "name": "getAdmin",
      "outputs": [
        {
          "internalType": "address",
          "name": "",
          "type": "address"
        }
      ],
      "stateMutability": "view",
      "type": "function"
    },
    {
      "inputs": [
        {
          "internalType": "uint256",
          "name": "months",
          "type": "uint256"
        }
      ],
      "name": "getDuration",
      "outputs": [
        {
          "internalType": "uint32",
          "name": "",
          "type": "uint32"
        }
      ],
      "stateMutability": "pure",
      "type": "function"
    },
    {
      "inputs": [
        {
          "internalType": "address",
          "name": "_depositor",
          "type": "address"
        }
      ],
      "name": "getLock",
      "outputs": [
        {
          "components": [
            {
              "internalType": "uint192",
              "name": "amount",
              "type": "uint192"
            },
            {
              "internalType": "uint32",
              "name": "lockedAt",
              "type": "uint32"
            },
            {
              "internalType": "uint32",
              "name": "lockDuration",
              "type": "uint32"
            }
          ],
          "internalType": "struct TokenLocker.Lock",
          "name": "lock",
          "type": "tuple"
        }
      ],
      "stateMutability": "view",
      "type": "function"
    },
    {
      "inputs": [
        {
          "internalType": "uint32",
          "name": "_duration",
          "type": "uint32"
        }
      ],
      "name": "getLockMultiplier",
      "outputs": [
        {
          "internalType": "uint256",
          "name": "multiplier",
          "type": "uint256"
        }
      ],
      "stateMutability": "view",
      "type": "function"
    },
    {
      "inputs": [
        {
          "internalType": "bytes32",
          "name": "role",
          "type": "bytes32"
        }
      ],
      "name": "getRoleAdmin",
      "outputs": [
        {
          "internalType": "bytes32",
          "name": "",
          "type": "bytes32"
        }
      ],
      "stateMutability": "view",
      "type": "function"
    },
    {
      "inputs": [
        {
          "internalType": "bytes32",
          "name": "role",
          "type": "bytes32"
        },
        {
          "internalType": "uint256",
          "name": "index",
          "type": "uint256"
        }
      ],
      "name": "getRoleMember",
      "outputs": [
        {
          "internalType": "address",
          "name": "",
          "type": "address"
        }
      ],
      "stateMutability": "view",
      "type": "function"
    },
    {
      "inputs": [
        {
          "internalType": "bytes32",
          "name": "role",
          "type": "bytes32"
        }
      ],
      "name": "getRoleMemberCount",
      "outputs": [
        {
          "internalType": "uint256",
          "name": "",
          "type": "uint256"
        }
      ],
      "stateMutability": "view",
      "type": "function"
    },
    {
      "inputs": [],
      "name": "getSecondsMonths",
      "outputs": [
        {
          "internalType": "uint256",
          "name": "",
          "type": "uint256"
        }
      ],
      "stateMutability": "pure",
      "type": "function"
    },
    {
      "inputs": [
        {
          "internalType": "bytes32",
          "name": "role",
          "type": "bytes32"
        },
        {
          "internalType": "address",
          "name": "account",
          "type": "address"
        }
      ],
      "name": "grantRole",
      "outputs": [],
      "stateMutability": "nonpayable",
      "type": "function"
    },
    {
      "inputs": [
        {
          "internalType": "address",
          "name": "_account",
          "type": "address"
        }
      ],
      "name": "hasLock",
      "outputs": [
        {
          "internalType": "bool",
          "name": "",
          "type": "bool"
        }
      ],
      "stateMutability": "view",
      "type": "function"
    },
    {
      "inputs": [
        {
          "internalType": "bytes32",
          "name": "role",
          "type": "bytes32"
        },
        {
          "internalType": "address",
          "name": "account",
          "type": "address"
        }
      ],
      "name": "hasRole",
      "outputs": [
        {
          "internalType": "bool",
          "name": "",
          "type": "bool"
        }
      ],
      "stateMutability": "view",
      "type": "function"
    },
    {
      "inputs": [
        {
          "internalType": "uint192",
          "name": "_amountNewTokens",
          "type": "uint192"
        }
      ],
      "name": "increaseAmount",
      "outputs": [],
      "stateMutability": "nonpayable",
      "type": "function"
    },
    {
      "inputs": [
        {
          "internalType": "uint192",
          "name": "_amount",
          "type": "uint192"
        },
        {
          "internalType": "uint256",
          "name": "_deadline",
          "type": "uint256"
        },
        {
          "internalType": "uint8",
          "name": "v",
          "type": "uint8"
        },
        {
          "internalType": "bytes32",
          "name": "r",
          "type": "bytes32"
        },
        {
          "internalType": "bytes32",
          "name": "s",
          "type": "bytes32"
        }
      ],
      "name": "increaseAmountWithSignature",
      "outputs": [],
      "stateMutability": "nonpayable",
      "type": "function"
    },
    {
      "inputs": [
        {
          "internalType": "address[]",
          "name": "receivers",
          "type": "address[]"
        },
        {
          "internalType": "uint192[]",
          "name": "_amountNewTokens",
          "type": "uint192[]"
        }
      ],
      "name": "increaseAmountsForMany",
      "outputs": [],
      "stateMutability": "nonpayable",
      "type": "function"
    },
    {
      "inputs": [
        {
          "internalType": "uint256",
          "name": "_months",
          "type": "uint256"
        }
      ],
      "name": "increaseByMonths",
      "outputs": [],
      "stateMutability": "nonpayable",
      "type": "function"
    },
    {
      "inputs": [
        {
          "internalType": "contract IERC20",
          "name": "_depositToken",
          "type": "address"
        },
        {
          "internalType": "contract IERC20MintableBurnable",
          "name": "_veToken",
          "type": "address"
        },
        {
          "internalType": "uint32",
          "name": "_minLockDuration",
          "type": "uint32"
        },
        {
          "internalType": "uint32",
          "name": "_maxLockDuration",
          "type": "uint32"
        },
        {
          "internalType": "uint192",
          "name": "_minLockAmount",
          "type": "uint192"
        }
      ],
      "name": "initialize",
      "outputs": [],
      "stateMutability": "nonpayable",
      "type": "function"
    },
    {
      "inputs": [
        {
          "components": [
            {
              "internalType": "uint192",
              "name": "amount",
              "type": "uint192"
            },
            {
              "internalType": "uint32",
              "name": "lockedAt",
              "type": "uint32"
            },
            {
              "internalType": "uint32",
              "name": "lockDuration",
              "type": "uint32"
            }
          ],
          "internalType": "struct TokenLocker.Lock",
          "name": "lock",
          "type": "tuple"
        }
      ],
      "name": "isLockExpired",
      "outputs": [
        {
          "internalType": "bool",
          "name": "",
          "type": "bool"
        }
      ],
      "stateMutability": "view",
      "type": "function"
    },
    {
      "inputs": [
        {
          "internalType": "address",
          "name": "_depositor",
          "type": "address"
        }
      ],
      "name": "isLockExpired",
      "outputs": [
        {
          "internalType": "bool",
          "name": "",
          "type": "bool"
        }
      ],
      "stateMutability": "view",
      "type": "function"
    },
    {
      "inputs": [
        {
          "internalType": "address",
          "name": "",
          "type": "address"
        }
      ],
      "name": "lockOf",
      "outputs": [
        {
          "internalType": "uint192",
          "name": "amount",
          "type": "uint192"
        },
        {
          "internalType": "uint32",
          "name": "lockedAt",
          "type": "uint32"
        },
        {
          "internalType": "uint32",
          "name": "lockDuration",
          "type": "uint32"
        }
      ],
      "stateMutability": "view",
      "type": "function"
    },
    {
      "inputs": [],
      "name": "maxLockDuration",
      "outputs": [
        {
          "internalType": "uint32",
          "name": "",
          "type": "uint32"
        }
      ],
      "stateMutability": "view",
      "type": "function"
    },
    {
      "inputs": [
        {
          "internalType": "uint256",
          "name": "",
          "type": "uint256"
        }
      ],
      "name": "maxRatioArray",
      "outputs": [
        {
          "internalType": "uint256",
          "name": "",
          "type": "uint256"
        }
      ],
      "stateMutability": "view",
      "type": "function"
    },
    {
      "inputs": [
        {
          "internalType": "address",
          "name": "_staker",
          "type": "address"
        }
      ],
      "name": "migrate",
      "outputs": [],
      "stateMutability": "nonpayable",
      "type": "function"
    },
    {
      "inputs": [],
      "name": "migrationEnabled",
      "outputs": [
        {
          "internalType": "bool",
          "name": "",
          "type": "bool"
        }
      ],
      "stateMutability": "view",
      "type": "function"
    },
    {
      "inputs": [],
      "name": "migrator",
      "outputs": [
        {
          "internalType": "address",
          "name": "",
          "type": "address"
        }
      ],
      "stateMutability": "view",
      "type": "function"
    },
    {
      "inputs": [],
      "name": "minLockAmount",
      "outputs": [
        {
          "internalType": "uint192",
          "name": "",
          "type": "uint192"
        }
      ],
      "stateMutability": "view",
      "type": "function"
    },
    {
      "inputs": [],
      "name": "minLockDuration",
      "outputs": [
        {
          "internalType": "uint32",
          "name": "",
          "type": "uint32"
        }
      ],
      "stateMutability": "view",
      "type": "function"
    },
    {
      "inputs": [],
      "name": "penaltyBeneficiary",
      "outputs": [
        {
          "internalType": "address",
          "name": "",
          "type": "address"
        }
      ],
      "stateMutability": "view",
      "type": "function"
    },
    {
      "inputs": [
        {
          "internalType": "uint192",
          "name": "_amount",
          "type": "uint192"
        },
        {
          "internalType": "uint256",
          "name": "_months",
          "type": "uint256"
        },
        {
          "internalType": "address",
          "name": "_receiver",
          "type": "address"
        }
      ],
      "name": "previewDepositByMonths",
      "outputs": [
        {
          "internalType": "uint256",
          "name": "",
          "type": "uint256"
        }
      ],
      "stateMutability": "view",
      "type": "function"
    },
    {
      "inputs": [
        {
          "internalType": "bytes32",
          "name": "role",
          "type": "bytes32"
        },
        {
          "internalType": "address",
          "name": "account",
          "type": "address"
        }
      ],
      "name": "renounceRole",
      "outputs": [],
      "stateMutability": "nonpayable",
      "type": "function"
    },
    {
      "inputs": [
        {
          "internalType": "bytes32",
          "name": "role",
          "type": "bytes32"
        },
        {
          "internalType": "address",
          "name": "account",
          "type": "address"
        }
      ],
      "name": "revokeRole",
      "outputs": [],
      "stateMutability": "nonpayable",
      "type": "function"
    },
    {
      "inputs": [
        {
          "internalType": "uint32",
          "name": "_buffer",
          "type": "uint32"
        }
      ],
      "name": "setEjectBuffer",
      "outputs": [],
      "stateMutability": "nonpayable",
      "type": "function"
    },
    {
      "inputs": [
        {
          "internalType": "bool",
          "name": "_migratonEnabled",
          "type": "bool"
        }
      ],
      "name": "setMigrationEnabled",
      "outputs": [],
      "stateMutability": "nonpayable",
      "type": "function"
    },
    {
      "inputs": [
        {
          "internalType": "address",
          "name": "_migrator",
          "type": "address"
        }
      ],
      "name": "setMigrator",
      "outputs": [],
      "stateMutability": "nonpayable",
      "type": "function"
    },
    {
      "inputs": [
        {
          "internalType": "uint192",
          "name": "minLockAmount_",
          "type": "uint192"
        }
      ],
      "name": "setMinLockAmount",
      "outputs": [],
      "stateMutability": "nonpayable",
      "type": "function"
    },
    {
      "inputs": [
        {
          "internalType": "address",
          "name": "_prv",
          "type": "address"
        }
      ],
      "name": "setPRV",
      "outputs": [],
      "stateMutability": "nonpayable",
      "type": "function"
    },
    {
      "inputs": [
        {
          "internalType": "uint256",
          "name": "_penaltyPercentage",
          "type": "uint256"
        }
      ],
      "name": "setPenalty",
      "outputs": [],
      "stateMutability": "nonpayable",
      "type": "function"
    },
    {
      "inputs": [
        {
          "internalType": "address",
          "name": "_beneficiary",
          "type": "address"
        }
      ],
      "name": "setPenaltyBeneficiary",
      "outputs": [],
      "stateMutability": "nonpayable",
      "type": "function"
    },
    {
      "inputs": [
        {
          "internalType": "address",
          "name": "_user",
          "type": "address"
        },
        {
          "internalType": "bool",
          "name": "_isWhitelisted",
          "type": "bool"
        }
      ],
      "name": "setWhitelisted",
      "outputs": [],
      "stateMutability": "nonpayable",
      "type": "function"
    },
    {
      "inputs": [
        {
          "internalType": "bytes4",
          "name": "interfaceId",
          "type": "bytes4"
        }
      ],
      "name": "supportsInterface",
      "outputs": [
        {
          "internalType": "bool",
          "name": "",
          "type": "bool"
        }
      ],
      "stateMutability": "view",
      "type": "function"
    },
    {
      "inputs": [],
      "name": "terminateEarly",
      "outputs": [],
      "stateMutability": "nonpayable",
      "type": "function"
    },
    {
      "inputs": [],
      "name": "triggerEmergencyUnlock",
      "outputs": [],
      "stateMutability": "nonpayable",
      "type": "function"
    },
    {
      "inputs": [],
      "name": "veToken",
      "outputs": [
        {
          "internalType": "contract IERC20MintableBurnable",
          "name": "",
          "type": "address"
        }
      ],
      "stateMutability": "view",
      "type": "function"
    },
    {
      "inputs": [
        {
          "internalType": "address",
          "name": "",
          "type": "address"
        }
      ],
      "name": "whitelisted",
      "outputs": [
        {
          "internalType": "bool",
          "name": "",
          "type": "bool"
        }
      ],
      "stateMutability": "view",
      "type": "function"
    },
    {
      "inputs": [],
      "name": "withdraw",
      "outputs": [],
      "stateMutability": "nonpayable",
      "type": "function"
    }
  ],
  "bytecode": {
    "object": "0x60806040523480156200001157600080fd5b506200001c62000022565b620000e3565b602554610100900460ff16156200008f5760405162461bcd60e51b815260206004820152602760248201527f496e697469616c697a61626c653a20636f6e747261637420697320696e697469604482015266616c697a696e6760c81b606482015260840160405180910390fd5b60255460ff90811614620000e1576025805460ff191660ff9081179091556040519081527f7f26b83ff96e1f2b6a682f133852f6798a09c465da95921460cefb38474024989060200160405180910390a15b565b61449980620000f36000396000f3fe608060405234801561001057600080fd5b50600436106103835760003560e01c80636ed93dd0116101de578063b549c50c1161010f578063d547741f116100ad578063de4635c01161007c578063de4635c0146108d9578063f1735860146108ec578063f5520d00146108f5578063fb7b640c146108fd57600080fd5b8063d547741f14610879578063d581f30e1461088c578063d6a298e91461089f578063d936547e146108b657600080fd5b8063ca15c873116100e9578063ca15c8731461082d578063cc27b8e114610840578063ce24788c14610853578063ce5494bb1461086657600080fd5b8063b549c50c146107f4578063b9d5083214610807578063c89039c51461081a57600080fd5b80638bb126a71161017c5780639281aa0b116101565780639281aa0b146107af5780639ac45f59146107c2578063a16cdbb1146107d5578063a217fddf146107ec57600080fd5b80638bb126a7146107765780639010d07c1461078957806391d148541461079c57600080fd5b8063752038ea116101b8578063752038ea1461072a578063783a15001461073d5780637cd07e471461075057806384686e181461076357600080fd5b80636ed93dd0146106f55780636ffff2491461070457806371edb84d1461071757600080fd5b8063388560a2116102b85780635a46d3b5116102565780636b4553eb116102305780636b4553eb1461061f5780636b9db4e6146106275780636cf6e2d2146106da5780636e9960c3146106ed57600080fd5b80635a46d3b514610581578063628658ff146105ef578063684cb274146105f857600080fd5b8063483293d811610292578063483293d814610535578063485e9450146105485780634a4b674a1461055b578063521c27f21461056e57600080fd5b8063388560a2146105075780633b92eb231461051a5780633ccfd60b1461052d57600080fd5b80631b089329116103255780632f2ff15d116102ff5780632f2ff15d146104ba57806335b944bf146104cd57806336568abe146104e15780633778a1bc146104f457600080fd5b80631b0893291461046357806323cf311814610476578063248a9ca31461048957600080fd5b80630d32b20e116103615780630d32b20e146104065780630f705a101461041b57806310dd81d71461042f57806310e207601461045b57600080fd5b806301ffc9a71461038857806308804275146103b05780630913dd70146103db575b600080fd5b61039b610396366004613c9f565b610910565b60405190151581526020015b60405180910390f35b60f3546103c3906001600160c01b031681565b6040516001600160c01b0390911681526020016103a7565b60ef546103ee906001600160a01b031681565b6040516001600160a01b0390911681526020016103a7565b610419610414366004613ce5565b61093b565b005b60f35461039b90600160e01b900460ff1681565b60f35461044690600160c01b900463ffffffff1681565b60405163ffffffff90911681526020016103a7565b61041961099c565b610419610471366004613d29565b610e7c565b610419610484366004613d92565b6110ff565b6104ac610497366004613daf565b6000908152608a602052604090206001015490565b6040519081526020016103a7565b6104196104c8366004613dc8565b611155565b60ee5461039b90600160a01b900460ff1681565b6104196104ef366004613dc8565b61117f565b610419610502366004613ce5565b6111fd565b61039b610515366004613d92565b61131b565b60f2546103ee906001600160a01b031681565b6104196113c3565b610419610543366004613d92565b6116c0565b610419610556366004613e09565b611719565b610419610569366004613daf565b611799565b61041961057c366004613e83565b611829565b6105c361058f366004613d92565b60f5602052600090815260409020546001600160c01b0381169063ffffffff600160c01b8204811691600160e01b90041683565b604080516001600160c01b03909416845263ffffffff92831660208501529116908201526060016103a7565b6104ac60f05481565b6104ac7f29944e936a0f6e1cbaa227df218d7d6025c2a2785db840e42a3425f24e9e68ac81565b610419611881565b6106a1610635366004613d92565b6040805160608082018352600080835260208084018290529284018190526001600160a01b0394909416845260f582529282902082519384018352546001600160c01b038116845263ffffffff600160c01b8204811692850192909252600160e01b9004169082015290565b6040805182516001600160c01b0316815260208084015163ffffffff9081169183019190915292820151909216908201526060016103a7565b6104196106e8366004613ea0565b6118f4565b6103ee611a9a565b6104ac670de0b6b3a764000081565b6104ac610712366004613ea0565b611aab565b60f4546103ee906001600160a01b031681565b6104ac610738366004613ee0565b611b3f565b61041961074b366004613f47565b611bf7565b60ee546103ee906001600160a01b031681565b61039b610771366004613f9f565b611ecc565b610446610784366004613daf565b611ef0565b6103ee610797366004614019565b611eff565b61039b6107aa366004613dc8565b611f17565b6104196107bd36600461403b565b611f42565b61039b6107d0366004613d92565b611fa2565b60f25461044690600160c01b900463ffffffff1681565b6104ac600081565b610419610802366004613ee0565b611fc8565b61039b610815366004613d92565b612027565b60f1546103ee906001600160a01b031681565b6104ac61083b366004613daf565b612095565b61041961084e366004614069565b6120ac565b610419610861366004613d92565b612511565b610419610874366004613d92565b6125cc565b610419610887366004613dc8565b6129b0565b61041961089a366004613daf565b6129d5565b60f25461044690600160a01b900463ffffffff1681565b61039b6108c4366004613d92565b60f66020526000908152604090205460ff1681565b6104ac6108e7366004613daf565b612af0565b622819a06104ac565b610419612b07565b61041961090b3660046140d5565b612d48565b60006001600160e01b03198216635a05180f60e01b1480610935575061093582612dbd565b92915050565b600061094681612df2565b60f380546001600160c01b0319166001600160c01b0384169081179091556040519081527f6172c9cb5fa124eeaf6f430e9ceda452f49bac54a2c4d76cc90dd590abdb5689906020015b60405180910390a15050565b60f354600160e01b900460ff16156109cf5760405162461bcd60e51b81526004016109c690614123565b60405180910390fd5b336109d981611fa2565b15156001146109fa5760405162461bcd60e51b81526004016109c69061414f565b33600090815260f56020908152604091829020825160608101845290546001600160c01b038116825263ffffffff600160c01b8204811693830193909352600160e01b900490911691810191909152610a5281611ecc565b15610a6f5760405162461bcd60e51b81526004016109c690614174565b60f4546001600160a01b0316610ab65760405162461bcd60e51b815260206004820152600c60248201526b15114e88191a5cd8589b195960a21b60448201526064016109c6565b33600090815260f560209081526040808320815160608101835290546001600160c01b038116825263ffffffff600160c01b8204811694830194909452600160e01b90049092169082015260f05482919015801590610b1f575060ef546001600160a01b031615155b15610b6f5760f0548151670de0b6b3a764000091610b45916001600160c01b03166141b0565b610b4f91906141cf565b8151909250610b689083906001600160c01b03166141f1565b9250610b7d565b80516001600160c01b031692505b33600081815260f5602090815260408083209290925560f25482516370a0823160e01b81526004810185905292516001600160a01b0390911693639dc29fac93909285926370a082319260248082019392918290030181865afa158015610be8573d6000803e3d6000fd5b505050506040513d601f19601f82011682018060405250810190610c0c9190614204565b6040518363ffffffff1660e01b8152600401610c2992919061421d565b600060405180830381600087803b158015610c4357600080fd5b505af1158015610c57573d6000803e3d6000fd5b505060f15460f45460405163095ea7b360e01b81526001600160a01b03928316945063095ea7b39350610c929290911690879060040161421d565b6020604051808303816000875af1158015610cb1573d6000803e3d6000fd5b505050506040513d601f19601f82011682018060405250810190610cd59190614236565b610d165760405162461bcd60e51b815260206004820152601260248201527115114e88185c1c1c9bdd994819985a5b195960721b60448201526064016109c6565b60f4546001600160a01b0316632f4f21e233856040518363ffffffff1660e01b8152600401610d4692919061421d565b600060405180830381600087803b158015610d6057600080fd5b505af1158015610d74573d6000803e3d6000fd5b505050506000821115610e3c5760f15460ef5460405163a9059cbb60e01b81526001600160a01b039283169263a9059cbb92610db792911690869060040161421d565b6020604051808303816000875af1158015610dd6573d6000803e3d6000fd5b505050506040513d601f19601f82011682018060405250810190610dfa9190614236565b610e3c5760405162461bcd60e51b815260206004820152601360248201527215114e881d1c985b9cd9995c8819985a5b1959606a1b60448201526064016109c6565b7fd48329b60fb879cd966b0702df731363e4402bac1b144c525e02dd02b98734853384604051610e6d92919061421d565b60405180910390a15050505050565b602554610100900460ff1615808015610e9c5750602554600160ff909116105b80610eb65750303b158015610eb6575060255460ff166001145b610f195760405162461bcd60e51b815260206004820152602e60248201527f496e697469616c697a61626c653a20636f6e747261637420697320616c72656160448201526d191e481a5b9a5d1a585b1a5e995960921b60648201526084016109c6565b6025805460ff191660011790558015610f3c576025805461ff0019166101001790555b610f44612dff565b610f4c613010565b610f5760003361307d565b60f280546001600160a01b038088166001600160a01b03199283161790925560f180549289169290911691909117905563ffffffff80841690851610610fd55760405162461bcd60e51b8152602060048201526013602482015272092dcd2e8d2c2d8f4ca7440dad2dc7c7adac2f606b1b60448201526064016109c6565b60f2805467ffffffffffffffff60a01b1916600160a01b63ffffffff8781169190910263ffffffff60c01b191691909117600160c01b9186169190910217905560f380546001600160c01b0384166001600160e01b0319909116811761127560c71b179091556040519081527f6172c9cb5fa124eeaf6f430e9ceda452f49bac54a2c4d76cc90dd590abdb56899060200160405180910390a160f354604051600160c01b90910463ffffffff1681527f6c18f251d2f21d1c4bf0b44dccc708127863cd417549ffc4d6b640f110bfb78c9060200160405180910390a180156110f7576025805461ff0019169055604051600181527f7f26b83ff96e1f2b6a682f133852f6798a09c465da95921460cefb38474024989060200160405180910390a15b505050505050565b600061110a81612df2565b60ee80546001600160a01b0319166001600160a01b0384169081179091556040517f6d4faaba9390b6bfbd5cb72e0cd8dfb4781f53d262654f8aa7eca81a0e24b31590600090a25050565b6000828152608a602052604090206001015461117081612df2565b61117a838361307d565b505050565b6001600160a01b03811633146111ef5760405162461bcd60e51b815260206004820152602f60248201527f416363657373436f6e74726f6c3a2063616e206f6e6c792072656e6f756e636560448201526e103937b632b9903337b91039b2b63360891b60648201526084016109c6565b6111f9828261309f565b5050565b60f354600160e01b900460ff16156112275760405162461bcd60e51b81526004016109c690614123565b3361123181611fa2565b15156001146112525760405162461bcd60e51b81526004016109c69061414f565b33600090815260f56020908152604091829020825160608101845290546001600160c01b038116825263ffffffff600160c01b8204811693830193909352600160e01b9004909116918101919091526112aa81611ecc565b156112c75760405162461bcd60e51b81526004016109c690614174565b6000836001600160c01b0316116113125760405162461bcd60e51b815260206004820152600f60248201526e049413a20616d6f756e74203d3d203608c1b60448201526064016109c6565b61117a836130c1565b6001600160a01b038116600090815260f560209081526040808320815160608101835290546001600160c01b03811680835263ffffffff600160c01b8304811695840195909552600160e01b909104909316918101919091529082036113845750600092915050565b60f354604082015160208301514292600160c01b900463ffffffff16916113aa91614253565b6113b49190614253565b63ffffffff1611159392505050565b336113cd81611fa2565b15156001146113ee5760405162461bcd60e51b81526004016109c69061414f565b33600090815260f56020908152604091829020825160608101845290546001600160c01b038116825263ffffffff600160c01b82048116938301849052600160e01b909104169281018390529161144491614253565b63ffffffff16421180611460575060f354600160e01b900460ff165b61149c5760405162461bcd60e51b815260206004820152600d60248201526c131bd8dac808595e1c1a5c9959609a1b60448201526064016109c6565b33600081815260f560208181526040808420815160608101835281546001600160c01b038116825263ffffffff600160c01b8204811683870152600160e01b90910416818401528686529383529390935560f25483516370a0823160e01b815260048101869052935192946001600160a01b0390911693639dc29fac93919285926370a082319260248082019392918290030181865afa158015611544573d6000803e3d6000fd5b505050506040513d601f19601f820116820180604052508101906115689190614204565b6040518363ffffffff1660e01b815260040161158592919061421d565b600060405180830381600087803b15801561159f57600080fd5b505af11580156115b3573d6000803e3d6000fd5b505060f154835160405163a9059cbb60e01b81526001600160a01b03909216935063a9059cbb92506115ea91339190600401614270565b6020604051808303816000875af1158015611609573d6000803e3d6000fd5b505050506040513d601f19601f8201168201806040525081019061162d9190614236565b6116795760405162461bcd60e51b815260206004820152601960248201527f57697468647261773a207472616e73666572206661696c65640000000000000060448201526064016109c6565b80516040516001600160c01b03909116815233907f2761bd397c463d554013f7bbc19a08be422061731d11821be9dbd78d3a8a21e2906020015b60405180910390a2505050565b60006116cb81612df2565b60f480546001600160a01b0319166001600160a01b0384169081179091556040519081527f588c663cd4fd0da6bb82978270f6243c90058d29d6b7bb4fa2c4dc81903384bf90602001610990565b60f1546001600160a01b031663d505accf33308a888888886040518863ffffffff1660e01b81526004016117539796959493929190614292565b600060405180830381600087803b15801561176d57600080fd5b505af1158015611781573d6000803e3d6000fd5b505050506117908787876118f4565b50505050505050565b60006117a481612df2565b670de0b6b3a764000082106117f45760405162461bcd60e51b815260206004820152601660248201527573657450656e616c74793a2046656520746f2062696760501b60448201526064016109c6565b60f08290556040518281527fa278265f249bd1d34230ee45bfaf294e84b622072a246cdea9bd1bf282b485c590602001610990565b600061183481612df2565b60ee8054831515600160a01b0260ff60a01b199091161790556040517ff32893339fedbc540c96811f9a210b43530cdfd5f3b8afe5e088a6e3007a2dcc9061099090841515815260200190565b600061188c81612df2565b60f354600160e01b900460ff16156118de5760405162461bcd60e51b815260206004820152601560248201527411554e88185b1c9958591e481d1c9a59d9d95c9959605a1b60448201526064016109c6565b5060f3805460ff60e01b1916600160e01b179055565b60f354600160e01b900460ff161561191e5760405162461bcd60e51b81526004016109c690614123565b8061192881611fa2565b156119625760405162461bcd60e51b815260206004820152600a602482015269131bd8dac8195e1a5cdd60b21b60448201526064016109c6565b8132331480611980575033600090815260f6602052604090205460ff165b6119bc5760405162461bcd60e51b815260206004820152600d60248201526c139bdd081153d0481bdc8815d3609a1b60448201526064016109c6565b336001600160a01b03821614806119e2575033600090815260f6602052604090205460ff165b611a2e5760405162461bcd60e51b815260206004820152601860248201527f73656e64657220213d207265636569766572206f7220574c000000000000000060448201526064016109c6565b60f3546001600160c01b039081169086161015611a805760405162461bcd60e51b815260206004820152601060248201526f4465706f7369743a20746f6f206c6f7760801b60448201526064016109c6565b611a938386611a8e87611ef0565b613334565b5050505050565b6000611aa68180611eff565b905090565b60f3546000906001600160c01b0390811690851611611acc57506000611b38565b6001600160a01b038216600090815260f560205260409020546001600160c01b031615611afb57506000611b38565b6000611b0961073885611ef0565b90506000670de0b6b3a7640000611b29836001600160c01b0389166141b0565b611b3391906141cf565b925050505b9392505050565b60f25460009063ffffffff600160a01b909104811690831610801590611b78575060f25463ffffffff600160c01b909104811690831611155b611bc45760405162461bcd60e51b815260206004820152601760248201527f474c4d3a204475726174696f6e20696e636f727265637400000000000000000060448201526064016109c6565b6000611bd9622819a063ffffffff85166141cf565b905060008160258110611bee57611bee6142dc565b01549392505050565b60005b8181101561117a576000838383818110611c1657611c166142dc565b9050602002016020810190611c2b9190613d92565b6001600160a01b038116600090815260f56020908152604091829020825160608101845290546001600160c01b03811680835263ffffffff600160c01b8304811694840194909452600160e01b90910490921692810192909252919250901580611cca575060f3546040820151602083015163ffffffff42811693600160c01b90041691611cb891614253565b611cc29190614253565b63ffffffff16115b15611cd6575050611eba565b6001600160a01b03828116600081815260f560205260408082209190915560f25490516370a0823160e01b8152600481019290925290911690639dc29fac90849083906370a0823190602401602060405180830381865afa158015611d3f573d6000803e3d6000fd5b505050506040513d601f19601f82011682018060405250810190611d639190614204565b6040518363ffffffff1660e01b8152600401611d8092919061421d565b600060405180830381600087803b158015611d9a57600080fd5b505af1158015611dae573d6000803e3d6000fd5b505060f154835160405163a9059cbb60e01b81526001600160a01b03909216935063a9059cbb9250611de591869190600401614270565b6020604051808303816000875af1158015611e04573d6000803e3d6000fd5b505050506040513d601f19601f82011682018060405250810190611e289190614236565b611e6d5760405162461bcd60e51b8152602060048201526016602482015275115a9958dd0e881d1c985b9cd9995c8819985a5b195960521b60448201526064016109c6565b80516040516001600160c01b0390911681526001600160a01b038316907fcd696a2028f89cf261b3782b81f33de42f8f762d6469f8a3c1eab7be6036a7669060200160405180910390a250505b80611ec4816142f2565b915050611bfa565b60004282604001518360200151611ee39190614253565b63ffffffff161092915050565b6000610935622819a0836141b0565b600082815260bc60205260408120611b38908361356e565b6000918252608a602090815260408084206001600160a01b0393909316845291905290205460ff1690565b6000611f4d81612df2565b6001600160a01b038316600081815260f66020526040808220805460ff191686151590811790915590519092917fff740666fee11e028e0e5d640f8b0299c246906f7efa0ab766199c38e120a4f691a3505050565b6001600160a01b0316600090815260f560205260409020546001600160c01b0316151590565b6000611fd381612df2565b60f3805463ffffffff60c01b1916600160c01b63ffffffff8516908102919091179091556040519081527f6c18f251d2f21d1c4bf0b44dccc708127863cd417549ffc4d6b640f110bfb78c90602001610990565b6001600160a01b038116600090815260f560209081526040808320815160608101835290546001600160c01b038116825263ffffffff600160c01b82048116948301859052600160e01b9091041691810182905291429161208791614253565b63ffffffff16109392505050565b600081815260bc602052604081206109359061357a565b60f354600160e01b900460ff16156120d65760405162461bcd60e51b81526004016109c690614123565b7f29944e936a0f6e1cbaa227df218d7d6025c2a2785db840e42a3425f24e9e68ac61210081612df2565b83821461214f5760405162461bcd60e51b815260206004820152601860248201527f49413a204172726179206c65677468206d69736d61746368000000000000000060448201526064016109c6565b6000805b8581101561244557600087878381811061216f5761216f6142dc565b90506020020160208101906121849190613d92565b9050600086868481811061219a5761219a6142dc565b90506020020160208101906121af9190613ce5565b90506000816001600160c01b0316116121fc5760405162461bcd60e51b815260206004820152600f60248201526e049413a20616d6f756e74203d3d203608c1b60448201526064016109c6565b61220582611fa2565b6122465760405162461bcd60e51b815260206004820152601260248201527112504e88131bd8dac81b9bdd08199bdd5b9960721b60448201526064016109c6565b6001600160a01b038216600090815260f56020908152604091829020825160608101845290546001600160c01b038116825263ffffffff600160c01b8204811693830193909352600160e01b9004909116918101919091526122a781611ecc565b156122e75760405162461bcd60e51b815260206004820152601060248201526f12504e88131bd8dac8115e1c1a5c995960821b60448201526064016109c6565b6000670de0b6b3a76400006122ff8360400151611b3f565b612312906001600160c01b0386166141b0565b61231c91906141cf565b90506000811161235f5760405162461bcd60e51b815260206004820152600e60248201526d49413a203020766553686172657360901b60448201526064016109c6565b6001600160a01b038416600090815260f56020526040812080548592906123909084906001600160c01b031661430b565b92506101000a8154816001600160c01b0302191690836001600160c01b03160217905550826001600160c01b0316866123c9919061432b565b60f2546040516340c10f1960e01b81529197506001600160a01b0316906340c10f19906123fc908790859060040161421d565b600060405180830381600087803b15801561241657600080fd5b505af115801561242a573d6000803e3d6000fd5b5050505050505050808061243d906142f2565b915050612153565b5060f1546001600160a01b03166323b872dd336040516001600160e01b031960e084901b1681526001600160a01b039091166004820152306024820152604481018490526064016020604051808303816000875af11580156124ab573d6000803e3d6000fd5b505050506040513d601f19601f820116820180604052508101906124cf9190614236565b6110f75760405162461bcd60e51b815260206004820152601360248201527212504e881d1c985b9cd9995c8819985a5b1959606a1b60448201526064016109c6565b600061251c81612df2565b6001600160a01b03821661257e5760405162461bcd60e51b815260206004820152602360248201527f73657450656e616c747942656e65666963696172793a205a65726f206164647260448201526265737360e81b60648201526084016109c6565b60ef80546001600160a01b0319166001600160a01b0384169081179091556040519081527f419acacbcf6cc7b791d43d94895e7fed347691547af17afd5b6092b73ef37a7390602001610990565b60f354600160e01b900460ff16156125f65760405162461bcd60e51b81526004016109c690614123565b60ee54600160a01b900460ff166126435760405162461bcd60e51b8152602060048201526011602482015270085b5a59dc985d1a5bdb915b98589b1959607a1b60448201526064016109c6565b60ee546001600160a01b03166126875760405162461bcd60e51b815260206004820152600960248201526810b6b4b3b930ba37b960b91b60448201526064016109c6565b60ee546001600160a01b0316336001600160a01b0316146126d95760405162461bcd60e51b815260206004820152600c60248201526b3737ba1036b4b3b930ba37b960a11b60448201526064016109c6565b806126e381611fa2565b15156001146127045760405162461bcd60e51b81526004016109c69061414f565b6001600160a01b038216600090815260f56020908152604091829020825160608101845290546001600160c01b038116825263ffffffff600160c01b8204811693830193909352600160e01b90049091169181019190915261276581611ecc565b156127825760405162461bcd60e51b81526004016109c690614174565b6001600160a01b03838116600081815260f560208181526040808420815160608101835281546001600160c01b038116825263ffffffff600160c01b8204811683870152600160e01b90910416818401528686529390925292905560f25491516370a0823160e01b81526004810193909352921690639dc29fac90869083906370a0823190602401602060405180830381865afa158015612827573d6000803e3d6000fd5b505050506040513d601f19601f8201168201806040525081019061284b9190614204565b6040518363ffffffff1660e01b815260040161286892919061421d565b600060405180830381600087803b15801561288257600080fd5b505af1158015612896573d6000803e3d6000fd5b505060f15460ee54845160405163a9059cbb60e01b81526001600160a01b03938416955063a9059cbb94506128d19390921691600401614270565b6020604051808303816000875af11580156128f0573d6000803e3d6000fd5b505050506040513d601f19601f820116820180604052508101906129149190614236565b6129605760405162461bcd60e51b815260206004820152601860248201527f4d6967726174653a207472616e73666572206661696c6564000000000000000060448201526064016109c6565b80516040516001600160c01b0390911681526001600160a01b038516907f8b80bd19aea7b735bc6d75db8d6adbe18b28c30d62b3555245eb67b2340caedc9060200160405180910390a250505050565b6000828152608a60205260409020600101546129cb81612df2565b61117a838361309f565b60f354600160e01b900460ff16156129ff5760405162461bcd60e51b81526004016109c690614123565b33612a0981611fa2565b1515600114612a2a5760405162461bcd60e51b81526004016109c69061414f565b33600090815260f56020908152604091829020825160608101845290546001600160c01b038116825263ffffffff600160c01b8204811693830193909352600160e01b900490911691810191909152612a8281611ecc565b15612a9f5760405162461bcd60e51b81526004016109c690614174565b60008311612adf5760405162461bcd60e51b815260206004820152600d60248201526c49424d3a2030204d6f6e74687360981b60448201526064016109c6565b61117a612aeb84611ef0565b613584565b60008160258110612b0057600080fd5b0154905081565b60f354600160e01b900460ff1615612b315760405162461bcd60e51b81526004016109c690614123565b33612b3b81611fa2565b1515600114612b5c5760405162461bcd60e51b81526004016109c69061414f565b33600090815260f560205260409020805463ffffffff428116600160c01b90810263ffffffff60c01b199093169290921780845560f254600160e01b90910482169290041614612d035760f2805482546001600160e01b0316600160c01b9182900463ffffffff908116600160e01b029190911784559154600092670de0b6b3a764000092612bec920416611b3f565b8354612c0191906001600160c01b03166141b0565b612c0b91906141cf565b60f2549091506000906001600160a01b03166370a08231336040516001600160e01b031960e084901b1681526001600160a01b039091166004820152602401602060405180830381865afa158015612c67573d6000803e3d6000fd5b505050506040513d601f19601f82011682018060405250810190612c8b9190614204565b612c9590836141f1565b90508015612d005760f2546001600160a01b03166340c10f1933836040518363ffffffff1660e01b8152600401612ccd92919061421d565b600060405180830381600087803b158015612ce757600080fd5b505af1158015612cfb573d6000803e3d6000fd5b505050505b50505b8054604080516001600160c01b0390921682525133917f85c20412f8487176b3477447f870911a7a9a148dd3b53c8621c14ab6eb8abdfb919081900360200190a25050565b60f1546001600160a01b031663d505accf333088888888886040518863ffffffff1660e01b8152600401612d829796959493929190614292565b600060405180830381600087803b158015612d9c57600080fd5b505af1158015612db0573d6000803e3d6000fd5b50505050611a93856111fd565b60006001600160e01b03198216637965db0b60e01b148061093557506301ffc9a760e01b6001600160e01b0319831614610935565b612dfc81336137af565b50565b604080516104a08101825260018152600260208201526003918101919091526004606082015260056080820152600660a08201526701280f39a347d32060c08201526701771e6974f04a0060e08201526701ca20315e85e5006101008201526702209587e2f4944061012082015267027a1bd1e0884e206101408201526702d6644966386b606101608201526703352e8bf5d41f6061018082015267039644fcaebab0606101a08201526703f97a450badaa806101c082015267045ea78d32d8a6c06101e08201526704c5ab2e5167986061020082015267052e67b8b0fddb40610220820152670598c334cccd9440610240820152670604a68ef38a3c60610260820152670671fd223a80b2a06102808201526706e0b45ae797dbe06102a0820152670750bb6ab86b11206102c08201526707c2030af4a0d4a06102e08201526708347d494a2e23c06103008201526708a81d5d330f04c061032082015267091cd7842e8569c0610340820152670992a0e37d498de0610360820152670a096f6e5afa15e0610380820152670a8139cfe7418bc06103a0820152670af9f7581bd8abc06103c0820152670b739feb4d02e8e06103e0820152670bee2bf3cb80b300610400820152670c69945552bcf3c0610420820152670ce5d261fd3a6a00610440820152670d62dfd08606ed60610460820152670de0b6b3a7640000610480820152612dfc906000906025613c40565b602554610100900460ff1661307b5760405162461bcd60e51b815260206004820152602b60248201527f496e697469616c697a61626c653a20636f6e7472616374206973206e6f74206960448201526a6e697469616c697a696e6760a81b60648201526084016109c6565b565b6130878282613808565b600082815260bc6020526040902061117a908261388e565b6130a982826138a3565b600082815260bc6020526040902061117a908261390a565b33600081815260f56020526040812054670de0b6b3a7640000906130f190600160e01b900463ffffffff16611b3f565b613104906001600160c01b0386166141b0565b61310e91906141cf565b9050600081116131515760405162461bcd60e51b815260206004820152600e60248201526d49413a203020766553686172657360901b60448201526064016109c6565b6001600160a01b038216600090815260f56020526040812080548592906131829084906001600160c01b031661430b565b82546101009290920a6001600160c01b03818102199093169190921691909102179055506001600160a01b03828116600090815260f5602052604090819020805463ffffffff60c01b1916600160c01b4263ffffffff160217905560f15490516323b872dd60e01b81529116906323b872dd906132079085903090889060040161433e565b6020604051808303816000875af1158015613226573d6000803e3d6000fd5b505050506040513d601f19601f8201168201806040525081019061324a9190614236565b61328c5760405162461bcd60e51b815260206004820152601360248201527212504e881d1c985b9cd9995c8819985a5b1959606a1b60448201526064016109c6565b60f2546040516340c10f1960e01b81526001600160a01b03909116906340c10f19906132be908590859060040161421d565b600060405180830381600087803b1580156132d857600080fd5b505af11580156132ec573d6000803e3d6000fd5b50506040516001600160c01b03861681526001600160a01b03851692507fc101843175e0994ad7490028fed58d681a642ee1026481afbd9cbe04a55dd71691506020016116b3565b600061333f82611b3f565b90506000670de0b6b3a764000061335f836001600160c01b0387166141b0565b61336991906141cf565b604080516060810182526001600160c01b03808816825263ffffffff42811660208085019182528983168587019081526001600160a01b03808e16600090815260f59093529690912094518554925191518416600160e01b026001600160e01b0392909416600160c01b026001600160e01b0319909316941693909317179190911617905560f154919250166323b872dd6134013390565b30876040518463ffffffff1660e01b81526004016134219392919061433e565b6020604051808303816000875af1158015613440573d6000803e3d6000fd5b505050506040513d601f19601f820116820180604052508101906134649190614236565b6134b05760405162461bcd60e51b815260206004820152601860248201527f6465706f7369743a207472616e73666572206661696c6564000000000000000060448201526064016109c6565b60f2546040516340c10f1960e01b81526001600160a01b03909116906340c10f19906134e2908890859060040161421d565b600060405180830381600087803b1580156134fc57600080fd5b505af1158015613510573d6000803e3d6000fd5b5050604080516001600160c01b038816815263ffffffff871660208201526001600160a01b03891693507f388c82926965c126794d29b56c89458f603319288f232ee75031e26189f6745a9250015b60405180910390a25050505050565b6000611b38838361391f565b6000610935825490565b33600090815260f560209081526040808320815160608101835290546001600160c01b038116825263ffffffff600160c01b8204811694830194909452600160e01b90049092169082018190529091906135de9084614253565b60f25490915063ffffffff600160c01b9091048116908216111561363a5760405162461bcd60e51b8152602060048201526013602482015272092aa88744088eae4c2e8d2dedc407c409ac2f606b1b60448201526064016109c6565b6000670de0b6b3a76400006136528460400151611b3f565b845161366791906001600160c01b03166141b0565b61367191906141cf565b90506000670de0b6b3a764000061368784611b3f565b855161369c91906001600160c01b03166141b0565b6136a691906141cf565b33600081815260f56020526040902080546001600160e01b0316600160e01b63ffffffff88160217905560f2549192506001600160a01b0391909116906340c10f19906136f385856141f1565b6040518363ffffffff1660e01b815260040161371092919061421d565b600060405180830381600087803b15801561372a57600080fd5b505af115801561373e573d6000803e3d6000fd5b505050506137493390565b6001600160a01b03167ff5855f952da08b9584df1908bed36c9b37db9bdc7ca6aa48cb747b4d87506418856000015185876020015160405161355f939291906001600160c01b0393909316835263ffffffff918216602084015216604082015260600190565b6137b98282611f17565b6111f9576137c681613949565b6137d183602061395b565b6040516020016137e292919061438e565b60408051601f198184030181529082905262461bcd60e51b82526109c691600401614403565b6138128282611f17565b6111f9576000828152608a602090815260408083206001600160a01b03851684529091529020805460ff1916600117905561384a3390565b6001600160a01b0316816001600160a01b0316837f2f8788117e7eff1d82e926ec794901d17c78024a50270940304540a733656f0d60405160405180910390a45050565b6000611b38836001600160a01b038416613af7565b6138ad8282611f17565b156111f9576000828152608a602090815260408083206001600160a01b0385168085529252808320805460ff1916905551339285917ff6391f5c32d9c69d2a47ea670b442974b53935d1edc7fd64eb21e047a839171b9190a45050565b6000611b38836001600160a01b038416613b46565b6000826000018281548110613936576139366142dc565b9060005260206000200154905092915050565b60606109356001600160a01b03831660145b6060600061396a8360026141b0565b61397590600261432b565b67ffffffffffffffff81111561398d5761398d613f89565b6040519080825280601f01601f1916602001820160405280156139b7576020820181803683370190505b509050600360fc1b816000815181106139d2576139d26142dc565b60200101906001600160f81b031916908160001a905350600f60fb1b81600181518110613a0157613a016142dc565b60200101906001600160f81b031916908160001a9053506000613a258460026141b0565b613a3090600161432b565b90505b6001811115613aa8576f181899199a1a9b1b9c1cb0b131b232b360811b85600f1660108110613a6457613a646142dc565b1a60f81b828281518110613a7a57613a7a6142dc565b60200101906001600160f81b031916908160001a90535060049490941c93613aa181614436565b9050613a33565b508315611b385760405162461bcd60e51b815260206004820181905260248201527f537472696e67733a20686578206c656e67746820696e73756666696369656e7460448201526064016109c6565b6000818152600183016020526040812054613b3e57508154600181810184556000848152602080822090930184905584548482528286019093526040902091909155610935565b506000610935565b60008181526001830160205260408120548015613c2f576000613b6a6001836141f1565b8554909150600090613b7e906001906141f1565b9050818114613be3576000866000018281548110613b9e57613b9e6142dc565b9060005260206000200154905080876000018481548110613bc157613bc16142dc565b6000918252602080832090910192909255918252600188019052604090208390555b8554869080613bf457613bf461444d565b600190038181906000526020600020016000905590558560010160008681526020019081526020016000206000905560019350505050610935565b6000915050610935565b5092915050565b8260258101928215613c7a579160200282015b82811115613c7a578251829067ffffffffffffffff16905591602001919060010190613c53565b50613c86929150613c8a565b5090565b5b80821115613c865760008155600101613c8b565b600060208284031215613cb157600080fd5b81356001600160e01b031981168114611b3857600080fd5b80356001600160c01b0381168114613ce057600080fd5b919050565b600060208284031215613cf757600080fd5b611b3882613cc9565b6001600160a01b0381168114612dfc57600080fd5b803563ffffffff81168114613ce057600080fd5b600080600080600060a08688031215613d4157600080fd5b8535613d4c81613d00565b94506020860135613d5c81613d00565b9350613d6a60408701613d15565b9250613d7860608701613d15565b9150613d8660808701613cc9565b90509295509295909350565b600060208284031215613da457600080fd5b8135611b3881613d00565b600060208284031215613dc157600080fd5b5035919050565b60008060408385031215613ddb57600080fd5b823591506020830135613ded81613d00565b809150509250929050565b803560ff81168114613ce057600080fd5b600080600080600080600060e0888a031215613e2457600080fd5b613e2d88613cc9565b9650602088013595506040880135613e4481613d00565b945060608801359350613e5960808901613df8565b925060a0880135915060c0880135905092959891949750929550565b8015158114612dfc57600080fd5b600060208284031215613e9557600080fd5b8135611b3881613e75565b600080600060608486031215613eb557600080fd5b613ebe84613cc9565b9250602084013591506040840135613ed581613d00565b809150509250925092565b600060208284031215613ef257600080fd5b611b3882613d15565b60008083601f840112613f0d57600080fd5b50813567ffffffffffffffff811115613f2557600080fd5b6020830191508360208260051b8501011115613f4057600080fd5b9250929050565b60008060208385031215613f5a57600080fd5b823567ffffffffffffffff811115613f7157600080fd5b613f7d85828601613efb565b90969095509350505050565b634e487b7160e01b600052604160045260246000fd5b600060608284031215613fb157600080fd5b6040516060810181811067ffffffffffffffff82111715613fe257634e487b7160e01b600052604160045260246000fd5b604052613fee83613cc9565b8152613ffc60208401613d15565b602082015261400d60408401613d15565b60408201529392505050565b6000806040838503121561402c57600080fd5b50508035926020909101359150565b6000806040838503121561404e57600080fd5b823561405981613d00565b91506020830135613ded81613e75565b6000806000806040858703121561407f57600080fd5b843567ffffffffffffffff8082111561409757600080fd5b6140a388838901613efb565b909650945060208701359150808211156140bc57600080fd5b506140c987828801613efb565b95989497509550505050565b600080600080600060a086880312156140ed57600080fd5b6140f686613cc9565b94506020860135935061410b60408701613df8565b94979396509394606081013594506080013592915050565b602080825260129082015271195b595c99d95b98de481d5b9b1bd8dad95960721b604082015260600190565b6020808252600b908201526a131bd8dac808595e1a5cdd60aa1b604082015260600190565b6020808252600c908201526b131bd8dac8195e1c1a5c995960a21b604082015260600190565b634e487b7160e01b600052601160045260246000fd5b60008160001904831182151516156141ca576141ca61419a565b500290565b6000826141ec57634e487b7160e01b600052601260045260246000fd5b500490565b818103818111156109355761093561419a565b60006020828403121561421657600080fd5b5051919050565b6001600160a01b03929092168252602082015260400190565b60006020828403121561424857600080fd5b8151611b3881613e75565b63ffffffff818116838216019080821115613c3957613c3961419a565b6001600160a01b039290921682526001600160c01b0316602082015260400190565b6001600160a01b0397881681529590961660208601526001600160c01b03939093166040850152606084019190915260ff16608083015260a082015260c081019190915260e00190565b634e487b7160e01b600052603260045260246000fd5b6000600182016143045761430461419a565b5060010190565b6001600160c01b03818116838216019080821115613c3957613c3961419a565b808201808211156109355761093561419a565b6001600160a01b0393841681529190921660208201526001600160c01b03909116604082015260600190565b60005b8381101561438557818101518382015260200161436d565b50506000910152565b7f416363657373436f6e74726f6c3a206163636f756e74200000000000000000008152600083516143c681601785016020880161436a565b7001034b99036b4b9b9b4b733903937b6329607d1b60179184019182015283516143f781602884016020880161436a565b01602801949350505050565b602081526000825180602084015261442281604085016020870161436a565b601f01601f19169190910160400192915050565b6000816144455761444561419a565b506000190190565b634e487b7160e01b600052603160045260246000fdfea2646970667358221220440a39a3c0d9eb17da82a16f47f05b8b0ecd251ad771a9bcf33fd9a5486e2d3664736f6c63430008100033",
    "linkReferences": {}
  },
  "methodIdentifiers": {
    "COMPOUNDER_ROLE()": "684cb274",
    "DEFAULT_ADMIN_ROLE()": "a217fddf",
    "HUNDRED_PERCENT()": "6ed93dd0",
    "PRV()": "71edb84d",
    "boostToMax()": "f5520d00",
    "canEject(address)": "388560a2",
    "depositByMonths(uint192,uint256,address)": "6cf6e2d2",
    "depositByMonthsWithSignature(uint192,uint256,address,uint256,uint8,bytes32,bytes32)": "485e9450",
    "depositToken()": "c89039c5",
    "earlyExitFee()": "628658ff",
    "eject(address[])": "783a1500",
    "ejectBuffer()": "10dd81d7",
    "emergencyUnlockTriggered()": "0f705a10",
    "getAdmin()": "6e9960c3",
    "getDuration(uint256)": "8bb126a7",
    "getLock(address)": "6b9db4e6",
    "getLockMultiplier(uint32)": "752038ea",
    "getRoleAdmin(bytes32)": "248a9ca3",
    "getRoleMember(bytes32,uint256)": "9010d07c",
    "getRoleMemberCount(bytes32)": "ca15c873",
    "getSecondsMonths()": "f1735860",
    "grantRole(bytes32,address)": "2f2ff15d",
    "hasLock(address)": "9ac45f59",
    "hasRole(bytes32,address)": "91d14854",
    "increaseAmount(uint192)": "3778a1bc",
    "increaseAmountWithSignature(uint192,uint256,uint8,bytes32,bytes32)": "fb7b640c",
    "increaseAmountsForMany(address[],uint192[])": "cc27b8e1",
    "increaseByMonths(uint256)": "d581f30e",
    "initialize(address,address,uint32,uint32,uint192)": "1b089329",
    "isLockExpired((uint192,uint32,uint32))": "84686e18",
    "isLockExpired(address)": "b9d50832",
    "lockOf(address)": "5a46d3b5",
    "maxLockDuration()": "a16cdbb1",
    "maxRatioArray(uint256)": "de4635c0",
    "migrate(address)": "ce5494bb",
    "migrationEnabled()": "35b944bf",
    "migrator()": "7cd07e47",
    "minLockAmount()": "08804275",
    "minLockDuration()": "d6a298e9",
    "penaltyBeneficiary()": "0913dd70",
    "previewDepositByMonths(uint192,uint256,address)": "6ffff249",
    "renounceRole(bytes32,address)": "36568abe",
    "revokeRole(bytes32,address)": "d547741f",
    "setEjectBuffer(uint32)": "b549c50c",
    "setMigrationEnabled(bool)": "521c27f2",
    "setMigrator(address)": "23cf3118",
    "setMinLockAmount(uint192)": "0d32b20e",
    "setPRV(address)": "483293d8",
    "setPenalty(uint256)": "4a4b674a",
    "setPenaltyBeneficiary(address)": "ce24788c",
    "setWhitelisted(address,bool)": "9281aa0b",
    "supportsInterface(bytes4)": "01ffc9a7",
    "terminateEarly()": "10e20760",
    "triggerEmergencyUnlock()": "6b4553eb",
    "veToken()": "3b92eb23",
    "whitelisted(address)": "d936547e",
    "withdraw()": "3ccfd60b"
  },
  "id": 132
}